{
  "contractName": "TokenCrowdsale",
  "abi": [
    {
      "constant": true,
      "inputs": [],
      "name": "hasClosed",
      "outputs": [
        {
          "name": "",
          "type": "bool"
        }
      ],
      "payable": false,
      "stateMutability": "view",
      "type": "function"
    },
    {
      "constant": true,
      "inputs": [],
      "name": "rate",
      "outputs": [
        {
          "name": "",
          "type": "uint256"
        }
      ],
      "payable": false,
      "stateMutability": "view",
      "type": "function"
    },
    {
      "constant": true,
      "inputs": [],
      "name": "cap",
      "outputs": [
        {
          "name": "",
          "type": "uint256"
        }
      ],
      "payable": false,
      "stateMutability": "view",
      "type": "function"
    },
    {
      "constant": true,
      "inputs": [],
      "name": "goal",
      "outputs": [
        {
          "name": "",
          "type": "uint256"
        }
      ],
      "payable": false,
      "stateMutability": "view",
      "type": "function"
    },
    {
      "constant": true,
      "inputs": [],
      "name": "weiRaised",
      "outputs": [
        {
          "name": "",
          "type": "uint256"
        }
      ],
      "payable": false,
      "stateMutability": "view",
      "type": "function"
    },
    {
      "constant": true,
      "inputs": [],
      "name": "closingTime",
      "outputs": [
        {
          "name": "",
          "type": "uint256"
        }
      ],
      "payable": false,
      "stateMutability": "view",
      "type": "function"
    },
    {
      "constant": false,
      "inputs": [],
      "name": "finalize",
      "outputs": [],
      "payable": false,
      "stateMutability": "nonpayable",
      "type": "function"
    },
    {
      "constant": true,
      "inputs": [],
      "name": "capReached",
      "outputs": [
        {
          "name": "",
          "type": "bool"
        }
      ],
      "payable": false,
      "stateMutability": "view",
      "type": "function"
    },
    {
      "constant": true,
      "inputs": [],
      "name": "wallet",
      "outputs": [
        {
          "name": "",
          "type": "address"
        }
      ],
      "payable": false,
      "stateMutability": "view",
      "type": "function"
    },
    {
      "constant": false,
      "inputs": [],
      "name": "renounceOwnership",
      "outputs": [],
      "payable": false,
      "stateMutability": "nonpayable",
      "type": "function"
    },
    {
      "constant": true,
      "inputs": [],
      "name": "goalReached",
      "outputs": [
        {
          "name": "",
          "type": "bool"
        }
      ],
      "payable": false,
      "stateMutability": "view",
      "type": "function"
    },
    {
      "constant": false,
      "inputs": [
        {
          "name": "_beneficiary",
          "type": "address"
        }
      ],
      "name": "removeFromWhitelist",
      "outputs": [],
      "payable": false,
      "stateMutability": "nonpayable",
      "type": "function"
    },
    {
      "constant": false,
      "inputs": [
        {
          "name": "_beneficiaries",
          "type": "address[]"
        }
      ],
      "name": "addManyToWhitelist",
      "outputs": [],
      "payable": false,
      "stateMutability": "nonpayable",
      "type": "function"
    },
    {
      "constant": true,
      "inputs": [],
      "name": "isFinalized",
      "outputs": [
        {
          "name": "",
          "type": "bool"
        }
      ],
      "payable": false,
      "stateMutability": "view",
      "type": "function"
    },
    {
      "constant": true,
      "inputs": [],
      "name": "owner",
      "outputs": [
        {
          "name": "",
          "type": "address"
        }
      ],
      "payable": false,
      "stateMutability": "view",
      "type": "function"
    },
    {
      "constant": true,
      "inputs": [],
      "name": "investorMaxCap",
      "outputs": [
        {
          "name": "",
          "type": "uint256"
        }
      ],
      "payable": false,
      "stateMutability": "view",
      "type": "function"
    },
    {
      "constant": true,
      "inputs": [
        {
          "name": "",
          "type": "address"
        }
      ],
      "name": "whitelist",
      "outputs": [
        {
          "name": "",
          "type": "bool"
        }
      ],
      "payable": false,
      "stateMutability": "view",
      "type": "function"
    },
    {
      "constant": true,
      "inputs": [],
      "name": "investorMinCap",
      "outputs": [
        {
          "name": "",
          "type": "uint256"
        }
      ],
      "payable": false,
      "stateMutability": "view",
      "type": "function"
    },
    {
      "constant": false,
      "inputs": [],
      "name": "claimRefund",
      "outputs": [],
      "payable": false,
      "stateMutability": "nonpayable",
      "type": "function"
    },
    {
      "constant": true,
      "inputs": [],
      "name": "openingTime",
      "outputs": [
        {
          "name": "",
          "type": "uint256"
        }
      ],
      "payable": false,
      "stateMutability": "view",
      "type": "function"
    },
    {
      "constant": true,
      "inputs": [],
      "name": "stage",
      "outputs": [
        {
          "name": "",
          "type": "uint8"
        }
      ],
      "payable": false,
      "stateMutability": "view",
      "type": "function"
    },
    {
      "constant": false,
      "inputs": [
        {
          "name": "_beneficiary",
          "type": "address"
        }
      ],
      "name": "addToWhitelist",
      "outputs": [],
      "payable": false,
      "stateMutability": "nonpayable",
      "type": "function"
    },
    {
      "constant": false,
      "inputs": [
        {
          "name": "_beneficiary",
          "type": "address"
        }
      ],
      "name": "buyTokens",
      "outputs": [],
      "payable": true,
      "stateMutability": "payable",
      "type": "function"
    },
    {
      "constant": false,
      "inputs": [
        {
          "name": "_newOwner",
          "type": "address"
        }
      ],
      "name": "transferOwnership",
      "outputs": [],
      "payable": false,
      "stateMutability": "nonpayable",
      "type": "function"
    },
    {
      "constant": true,
      "inputs": [],
      "name": "vault",
      "outputs": [
        {
          "name": "",
          "type": "address"
        }
      ],
      "payable": false,
      "stateMutability": "view",
      "type": "function"
    },
    {
      "constant": true,
      "inputs": [],
      "name": "token",
      "outputs": [
        {
          "name": "",
          "type": "address"
        }
      ],
      "payable": false,
      "stateMutability": "view",
      "type": "function"
    },
    {
      "inputs": [
        {
          "name": "_rate",
          "type": "uint256"
        },
        {
          "name": "_wallet",
          "type": "address"
        },
        {
          "name": "_token",
          "type": "address"
        },
        {
          "name": "_cap",
          "type": "uint256"
        },
        {
          "name": "_openingTime",
          "type": "uint256"
        },
        {
          "name": "_closingTime",
          "type": "uint256"
        },
        {
          "name": "_goal",
          "type": "uint256"
        }
      ],
      "payable": false,
      "stateMutability": "nonpayable",
      "type": "constructor"
    },
    {
      "payable": true,
      "stateMutability": "payable",
      "type": "fallback"
    },
    {
      "anonymous": false,
      "inputs": [],
      "name": "Finalized",
      "type": "event"
    },
    {
      "anonymous": false,
      "inputs": [
        {
          "indexed": true,
          "name": "previousOwner",
          "type": "address"
        }
      ],
      "name": "OwnershipRenounced",
      "type": "event"
    },
    {
      "anonymous": false,
      "inputs": [
        {
          "indexed": true,
          "name": "previousOwner",
          "type": "address"
        },
        {
          "indexed": true,
          "name": "newOwner",
          "type": "address"
        }
      ],
      "name": "OwnershipTransferred",
      "type": "event"
    },
    {
      "anonymous": false,
      "inputs": [
        {
          "indexed": true,
          "name": "purchaser",
          "type": "address"
        },
        {
          "indexed": true,
          "name": "beneficiary",
          "type": "address"
        },
        {
          "indexed": false,
          "name": "value",
          "type": "uint256"
        },
        {
          "indexed": false,
          "name": "amount",
          "type": "uint256"
        }
      ],
      "name": "TokenPurchase",
      "type": "event"
    },
    {
      "constant": true,
      "inputs": [
        {
          "name": "_beneficiary",
          "type": "address"
        }
      ],
      "name": "getUserContribution",
      "outputs": [
        {
          "name": "",
          "type": "uint256"
        }
      ],
      "payable": false,
      "stateMutability": "view",
      "type": "function"
    },
    {
      "constant": false,
      "inputs": [
        {
          "name": "_stage",
          "type": "uint256"
        }
      ],
      "name": "setCrowdsaleStage",
      "outputs": [],
      "payable": false,
      "stateMutability": "nonpayable",
      "type": "function"
    }
  ],
  "bytecode": "0x60806040526009805460ff1990811690915566071afd498d0000600c556802b5e3af16b1880000600d55600f8054909116905534801561003e57600080fd5b5060405160e08061158383398101604090815281516020830151918301516060840151608085015160a086015160c0909601519395929391929091808383868a8a8a6000831161008d57600080fd5b600160a060020a03821615156100a257600080fd5b600160a060020a03811615156100b757600080fd5b60029290925560018054600160a060020a03928316600160a060020a0319918216179091556000805492909316911617815581116100f457600080fd5b6004554282101561010457600080fd5b8181101561011157600080fd5b60059190915560065560078054600160a060020a031916331790556000811161013957600080fd5b600154600160a060020a031661014d6101b7565b600160a060020a03909116815260405190819003602001906000f08015801561017a573d6000803e3d6000fd5b50600b8054600160a060020a031916600160a060020a0392909216919091179055600a55838111156101ab57600080fd5b505050505050506101c7565b60405161069080610ef383390190565b610d1d806101d66000396000f3006080604052600436106101505763ffffffff60e060020a6000350416631515bc2b811461015b5780632c4e722e14610184578063355274ea146101ab57806340193883146101c05780634042b66f146101d55780634b6753bc146101ea5780634bb278f3146101ff5780634f93594514610214578063521eb27314610229578063715018a61461025a5780637d3d65221461026f5780638ab1d681146102845780638c10671c146102a55780638d4e4083146102c55780638da5cb5b146102da5780639250c367146102ef5780639b19251a14610304578063a997f82f14610325578063b25d7f541461033d578063b5545a3c14610352578063b7a8807c14610367578063bb8b2b471461037c578063c040e6b81461039d578063e43252d7146103d6578063ec8ac4d8146103f7578063f2fde38b1461040b578063fbfa77cf1461042c578063fc0c546a14610441575b61015933610456565b005b34801561016757600080fd5b506101706104f8565b604080519115158252519081900360200190f35b34801561019057600080fd5b50610199610500565b60408051918252519081900360200190f35b3480156101b757600080fd5b50610199610506565b3480156101cc57600080fd5b5061019961050c565b3480156101e157600080fd5b50610199610512565b3480156101f657600080fd5b50610199610518565b34801561020b57600080fd5b5061015961051e565b34801561022057600080fd5b50610170610598565b34801561023557600080fd5b5061023e6105a3565b60408051600160a060020a039092168252519081900360200190f35b34801561026657600080fd5b506101596105b2565b34801561027b57600080fd5b50610170610620565b34801561029057600080fd5b50610159600160a060020a036004351661062b565b3480156102b157600080fd5b506101596004803560248101910135610663565b3480156102d157600080fd5b506101706106d4565b3480156102e657600080fd5b5061023e6106dd565b3480156102fb57600080fd5b506101996106ec565b34801561031057600080fd5b50610170600160a060020a03600435166106f2565b34801561033157600080fd5b50610159600435610707565b34801561034957600080fd5b50610199610791565b34801561035e57600080fd5b50610159610797565b34801561037357600080fd5b50610199610839565b34801561038857600080fd5b50610199600160a060020a036004351661083f565b3480156103a957600080fd5b506103b261085a565b604051808260018111156103c257fe5b60ff16815260200191505060405180910390f35b3480156103e257600080fd5b50610159600160a060020a0360043516610863565b610159600160a060020a0360043516610456565b34801561041757600080fd5b50610159600160a060020a036004351661089e565b34801561043857600080fd5b5061023e6108be565b34801561044d57600080fd5b5061023e6108cd565b34600061046383836108dc565b61046c82610956565b600354909150610482908363ffffffff61097316565b60035561048f8382610980565b60408051838152602081018390528151600160a060020a0386169233927f623b3804fa71d67900d064613da8f94b9617215ee90799290593e1745087ad18929081900390910190a36104e1838361098a565b6104e961098e565b6104f3838361098a565b505050565b600654421190565b60025481565b60045481565b600a5481565b60035481565b60065481565b600754600160a060020a0316331461053557600080fd5b60095460ff161561054557600080fd5b61054d6104f8565b151561055857600080fd5b610560610a0f565b6040517f6823b073d48d6e3a7d385eeb601452d680e74bb46afe3255a7d778f3a9b1768190600090a16009805460ff19166001179055565b600454600354101590565b600154600160a060020a031681565b600754600160a060020a031633146105c957600080fd5b600754604051600160a060020a03909116907ff8df31144d9c2f0f6b59d69b8b98abd5459d07f2742c4df920b25aae33c6482090600090a26007805473ffffffffffffffffffffffffffffffffffffffff19169055565b600a54600354101590565b600754600160a060020a0316331461064257600080fd5b600160a060020a03166000908152600860205260409020805460ff19169055565b600754600090600160a060020a0316331461067d57600080fd5b5060005b818110156104f35760016008600085858581811061069b57fe5b60209081029290920135600160a060020a0316835250810191909152604001600020805460ff1916911515919091179055600101610681565b60095460ff1681565b600754600160a060020a031681565b600d5481565b60086020526000908152604090205460ff1681565b600754600160a060020a0316331461071e57600080fd5b80151561073457600f805460ff1916905561074b565b806001141561074b57600f805460ff191660011790555b6000600f5460ff16600181111561075e57fe5b141561076f576101f460025561078e565b6001600f5460ff16600181111561078257fe5b141561078e5760fa6002555b50565b600c5481565b60095460ff1615156107a857600080fd5b6107b0610620565b156107ba57600080fd5b600b54604080517ffa89401a0000000000000000000000000000000000000000000000000000000081523360048201529051600160a060020a039092169163fa89401a9160248082019260009290919082900301818387803b15801561081f57600080fd5b505af1158015610833573d6000803e3d6000fd5b50505050565b60055481565b600160a060020a03166000908152600e602052604090205490565b600f5460ff1681565b600754600160a060020a0316331461087a57600080fd5b600160a060020a03166000908152600860205260409020805460ff19166001179055565b600754600160a060020a031633146108b557600080fd5b61078e81610afe565b600b54600160a060020a031681565b600054600160a060020a031681565b6000806108e98484610b7c565b600160a060020a0384166000908152600e60205260409020549150610914828463ffffffff61097316565b9050600c54811015801561092a5750600d548111155b151561093557600080fd5b600160a060020a039093166000908152600e60205260409020929092555050565b600061096d60025483610baf90919063ffffffff16565b92915050565b8181018281101561096d57fe5b61098a8282610bd8565b5050565b600b54604080517ff340fa010000000000000000000000000000000000000000000000000000000081523360048201529051600160a060020a039092169163f340fa01913491602480830192600092919082900301818588803b1580156109f457600080fd5b505af1158015610a08573d6000803e3d6000fd5b5050505050565b610a17610620565b15610a8c57600b60009054906101000a9004600160a060020a0316600160a060020a03166343d726d66040518163ffffffff1660e060020a028152600401600060405180830381600087803b158015610a6f57600080fd5b505af1158015610a83573d6000803e3d6000fd5b50505050610af8565b600b60009054906101000a9004600160a060020a0316600160a060020a0316638c52dc416040518163ffffffff1660e060020a028152600401600060405180830381600087803b158015610adf57600080fd5b505af1158015610af3573d6000803e3d6000fd5b505050505b610afc5b565b600160a060020a0381161515610b1357600080fd5b600754604051600160a060020a038084169216907f8be0079c531659141344cd1fd0a4f28419497f9722a3daafe3b4186f6b6457e090600090a36007805473ffffffffffffffffffffffffffffffffffffffff1916600160a060020a0392909216919091179055565b600160a060020a038216600090815260086020526040902054829060ff161515610ba557600080fd5b6104f38383610c81565b6000821515610bc05750600061096d565b50818102818382811515610bd057fe5b041461096d57fe5b60008054604080517f40c10f19000000000000000000000000000000000000000000000000000000008152600160a060020a03868116600483015260248201869052915191909216926340c10f1992604480820193602093909283900390910190829087803b158015610c4a57600080fd5b505af1158015610c5e573d6000803e3d6000fd5b505050506040513d6020811015610c7457600080fd5b5051151561098a57600080fd5b6005544210158015610c9557506006544211155b1515610ca057600080fd5b61098a8282610caf8282610cd0565b600454600354610cc5908363ffffffff61097316565b111561098a57600080fd5b600160a060020a0382161515610ce557600080fd5b80151561098a57600080fd00a165627a7a72305820d633e122d3a48131f67df20887ece1115ad036de96e05aa2207fb64ae7cb5ccd0029608060405234801561001057600080fd5b50604051602080610690833981016040525160008054600160a060020a03191633179055600160a060020a038116151561004957600080fd5b60028054600160a060020a031916600160a060020a03929092169190911760a060020a60ff021916905561060e806100826000396000f3006080604052600436106100a35763ffffffff7c010000000000000000000000000000000000000000000000000000000060003504166343d726d681146100a8578063521eb273146100bf578063715018a6146100f05780638c52dc41146101055780638da5cb5b1461011a578063c19d93fb1461012f578063cb13cddb14610168578063f2fde38b1461019b578063f340fa01146101bc578063fa89401a146101d0575b600080fd5b3480156100b457600080fd5b506100bd6101f1565b005b3480156100cb57600080fd5b506100d46102c7565b60408051600160a060020a039092168252519081900360200190f35b3480156100fc57600080fd5b506100bd6102d6565b34801561011157600080fd5b506100bd610342565b34801561012657600080fd5b506100d46103cc565b34801561013b57600080fd5b506101446103db565b6040518082600281111561015457fe5b60ff16815260200191505060405180910390f35b34801561017457600080fd5b50610189600160a060020a03600435166103eb565b60408051918252519081900360200190f35b3480156101a757600080fd5b506100bd600160a060020a03600435166103fd565b6100bd600160a060020a036004351661041d565b3480156101dc57600080fd5b506100bd600160a060020a036004351661049d565b600054600160a060020a0316331461020857600080fd5b60006002805460a060020a900460ff169081111561022257fe5b1461022c57600080fd5b6002805474ff00000000000000000000000000000000000000001916740200000000000000000000000000000000000000001790556040517f1cdde67b72a90f19919ac732a437ac2f7a10fc128d28c2a6e525d89ce5cd9d3a90600090a1600254604051600160a060020a0390911690303180156108fc02916000818181858888f193505050501580156102c4573d6000803e3d6000fd5b50565b600254600160a060020a031681565b600054600160a060020a031633146102ed57600080fd5b60008054604051600160a060020a03909116917ff8df31144d9c2f0f6b59d69b8b98abd5459d07f2742c4df920b25aae33c6482091a26000805473ffffffffffffffffffffffffffffffffffffffff19169055565b600054600160a060020a0316331461035957600080fd5b60006002805460a060020a900460ff169081111561037357fe5b1461037d57600080fd5b6002805474ff0000000000000000000000000000000000000000191660a060020a1790556040517f599d8e5a83cffb867d051598c4d70e805d59802d8081c1c7d6dffc5b6aca2b8990600090a1565b600054600160a060020a031681565b60025460a060020a900460ff1681565b60016020526000908152604090205481565b600054600160a060020a0316331461041457600080fd5b6102c481610552565b600054600160a060020a0316331461043457600080fd5b60006002805460a060020a900460ff169081111561044e57fe5b1461045857600080fd5b600160a060020a038116600090815260016020526040902054610481903463ffffffff6105cf16565b600160a060020a03909116600090815260016020526040902055565b600060016002805460a060020a900460ff16908111156104b957fe5b146104c357600080fd5b50600160a060020a038116600081815260016020526040808220805490839055905190929183156108fc02918491818181858888f1935050505015801561050e573d6000803e3d6000fd5b50604080518281529051600160a060020a038416917fd7dee2702d63ad89917b6a4da9981c90c4d24f8c2bdfd64c604ecae57d8d0651919081900360200190a25050565b600160a060020a038116151561056757600080fd5b60008054604051600160a060020a03808516939216917f8be0079c531659141344cd1fd0a4f28419497f9722a3daafe3b4186f6b6457e091a36000805473ffffffffffffffffffffffffffffffffffffffff1916600160a060020a0392909216919091179055565b818101828110156105dc57fe5b929150505600a165627a7a72305820bedcec8e66341ed53ef3c6633e9ae6bcf0911b003b6577021cf5655cc204860b0029",
  "source": "pragma solidity 0.4.24;\r\n\r\n// Crowdsale\r\n// Timed Crowdsale\r\n// Capped Crowdsale\r\n// Minted Crowdsale\r\n// Whitelisted Crowdsale\r\n// Refundable Crowdsale\r\n// Presale/Public Sale\r\n//Token Distribution & Vesting\r\n\r\nimport \"openzeppelin-solidity/contracts/crowdsale/Crowdsale.sol\";\r\nimport \"openzeppelin-solidity/contracts/crowdsale/emission/MintedCrowdsale.sol\";\r\nimport \"openzeppelin-solidity/contracts/crowdsale/validation/CappedCrowdsale.sol\";\r\nimport \"openzeppelin-solidity/contracts/crowdsale/validation/TimedCrowdsale.sol\";\r\nimport \"openzeppelin-solidity/contracts/crowdsale/validation/WhitelistedCrowdsale.sol\";\r\nimport \"openzeppelin-solidity/contracts/crowdsale/distribution/RefundableCrowdsale.sol\";\r\n\r\ncontract TokenCrowdsale is Crowdsale, MintedCrowdsale, CappedCrowdsale, TimedCrowdsale, WhitelistedCrowdsale, RefundableCrowdsale {\r\n    \r\n    // Track investor contributions\r\n    uint256 public investorMinCap = 2000000000000000; // Minimum investor contribution - 0.002 Ether\r\n    uint256 public investorMaxCap = 50000000000000000000; // Maximum investor contribution - 50 Ether\r\n    mapping(address => uint256) contributions;\r\n    \r\n    // Crowdsale Stages\r\n    enum CrowdsaleStage { PreICO, ICO }\r\n    CrowdsaleStage public stage = CrowdsaleStage.PreICO;\r\n    \r\n    constructor(\r\n        uint256 _rate, \r\n        address _wallet, \r\n        ERC20 _token,\r\n        uint256 _cap,\r\n        uint256 _openingTime,\r\n        uint256 _closingTime,\r\n        uint256 _goal\r\n    ) \r\n        Crowdsale(_rate, _wallet, _token)\r\n        CappedCrowdsale(_cap)\r\n        TimedCrowdsale(_openingTime, _closingTime)\r\n        RefundableCrowdsale(_goal)\r\n        public \r\n    {\r\n        require(_goal <= _cap);\r\n    }\r\n\r\n    /**\r\n    * @dev Returns the amount contributed so far by a sepecific user.\r\n    * @param _beneficiary Address of contributor\r\n    * @return User contribution so far\r\n    */    \r\n    function getUserContribution(address _beneficiary) public view returns(uint256) {\r\n        return contributions[_beneficiary];\r\n    }\r\n\r\n    /**\r\n    * @dev Allows admin to update the crowdsale stage\r\n    * @param _stage Crowdsale stage\r\n    */    \r\n    function setCrowdsaleStage(uint _stage) public onlyOwner {\r\n        if(uint(CrowdsaleStage.PreICO) == _stage) {\r\n            stage = CrowdsaleStage.PreICO;        \r\n        } else if(uint(CrowdsaleStage.ICO) == _stage) {\r\n            stage = CrowdsaleStage.ICO;\r\n        }\r\n\r\n        if(stage == CrowdsaleStage.PreICO) {\r\n            rate = 500;\r\n        } else if(stage == CrowdsaleStage.ICO) {\r\n            rate = 250;\r\n        }\r\n    }\r\n    \r\n    /**\r\n    * @dev Extend parent behavior requiring purchase to respect investor min/max funding cap.\r\n    * @param _beneficiary Token purchaser\r\n    * @param _weiAmount Amount of wei contributed\r\n    */    \r\n    function _preValidatePurchase(address _beneficiary, uint256 _weiAmount) internal {\r\n        super._preValidatePurchase(_beneficiary, _weiAmount); // call parent contract and its function _preValidatePurchase\r\n        uint256 _existingContribution = contributions[_beneficiary];\r\n        uint256 _newContribution = _existingContribution.add(_weiAmount);\r\n        require(_newContribution >= investorMinCap && _newContribution <= investorMaxCap);\r\n        contributions[_beneficiary] = _newContribution;\r\n    }\r\n\r\n}",
  "sourcePath": "/mnt/c/pr0/ico/contracts/TokenCrowdsale.sol",
  "compiler": {
    "name": "solc",
    "version": "0.4.24+commit.e67f0147.Emscripten.clang"
  },
  "schemaVersion": "3.3.4",
  "updatedAt": "2021-05-30T07:59:46.204Z",
  "devdoc": {
    "methods": {
      "addManyToWhitelist(address[])": {
        "details": "Adds list of addresses to whitelist. Not overloaded due to limitations with truffle testing.",
        "params": {
          "_beneficiaries": "Addresses to be added to the whitelist"
        }
      },
      "addToWhitelist(address)": {
        "details": "Adds single address to whitelist.",
        "params": {
          "_beneficiary": "Address to be added to the whitelist"
        }
      },
      "buyTokens(address)": {
        "details": "low level token purchase ***DO NOT OVERRIDE***",
        "params": {
          "_beneficiary": "Address performing the token purchase"
        }
      },
      "capReached()": {
        "details": "Checks whether the cap has been reached.",
        "return": "Whether the cap was reached"
      },
      "claimRefund()": {
        "details": "Investors can claim refunds here if crowdsale is unsuccessful"
      },
      "finalize()": {
        "details": "Must be called after crowdsale ends, to do some extra finalization work. Calls the contract's finalization function."
      },
      "getUserContribution(address)": {
        "details": "Returns the amount contributed so far by a sepecific user.\r",
        "params": {
          "_beneficiary": "Address of contributor\r"
        },
        "return": "User contribution so far\r"
      },
      "goalReached()": {
        "details": "Checks whether funding goal was reached.",
        "return": "Whether funding goal was reached"
      },
      "hasClosed()": {
        "details": "Checks whether the period in which the crowdsale is open has already elapsed.",
        "return": "Whether crowdsale period has elapsed"
      },
      "removeFromWhitelist(address)": {
        "details": "Removes single address from whitelist.",
        "params": {
          "_beneficiary": "Address to be removed to the whitelist"
        }
      },
      "renounceOwnership()": {
        "details": "Allows the current owner to relinquish control of the contract."
      },
      "setCrowdsaleStage(uint256)": {
        "details": "Allows admin to update the crowdsale stage\r",
        "params": {
          "_stage": "Crowdsale stage\r"
        }
      },
      "transferOwnership(address)": {
        "details": "Allows the current owner to transfer control of the contract to a newOwner.",
        "params": {
          "_newOwner": "The address to transfer ownership to."
        }
      }
    }
  },
  "userdoc": {
    "methods": {}
  }
}