{
  "contractName": "TokenCrowdsale",
  "abi": [
    {
      "constant": true,
      "inputs": [],
      "name": "hasClosed",
      "outputs": [
        {
          "name": "",
          "type": "bool"
        }
      ],
      "payable": false,
      "stateMutability": "view",
      "type": "function"
    },
    {
      "constant": true,
      "inputs": [],
      "name": "rate",
      "outputs": [
        {
          "name": "",
          "type": "uint256"
        }
      ],
      "payable": false,
      "stateMutability": "view",
      "type": "function"
    },
    {
      "constant": true,
      "inputs": [],
      "name": "cap",
      "outputs": [
        {
          "name": "",
          "type": "uint256"
        }
      ],
      "payable": false,
      "stateMutability": "view",
      "type": "function"
    },
    {
      "constant": true,
      "inputs": [],
      "name": "weiRaised",
      "outputs": [
        {
          "name": "",
          "type": "uint256"
        }
      ],
      "payable": false,
      "stateMutability": "view",
      "type": "function"
    },
    {
      "constant": true,
      "inputs": [],
      "name": "closingTime",
      "outputs": [
        {
          "name": "",
          "type": "uint256"
        }
      ],
      "payable": false,
      "stateMutability": "view",
      "type": "function"
    },
    {
      "constant": true,
      "inputs": [],
      "name": "capReached",
      "outputs": [
        {
          "name": "",
          "type": "bool"
        }
      ],
      "payable": false,
      "stateMutability": "view",
      "type": "function"
    },
    {
      "constant": true,
      "inputs": [],
      "name": "wallet",
      "outputs": [
        {
          "name": "",
          "type": "address"
        }
      ],
      "payable": false,
      "stateMutability": "view",
      "type": "function"
    },
    {
      "constant": true,
      "inputs": [],
      "name": "investorMaxCap",
      "outputs": [
        {
          "name": "",
          "type": "uint256"
        }
      ],
      "payable": false,
      "stateMutability": "view",
      "type": "function"
    },
    {
      "constant": true,
      "inputs": [],
      "name": "investorMinCap",
      "outputs": [
        {
          "name": "",
          "type": "uint256"
        }
      ],
      "payable": false,
      "stateMutability": "view",
      "type": "function"
    },
    {
      "constant": true,
      "inputs": [],
      "name": "openingTime",
      "outputs": [
        {
          "name": "",
          "type": "uint256"
        }
      ],
      "payable": false,
      "stateMutability": "view",
      "type": "function"
    },
    {
      "constant": false,
      "inputs": [
        {
          "name": "_beneficiary",
          "type": "address"
        }
      ],
      "name": "buyTokens",
      "outputs": [],
      "payable": true,
      "stateMutability": "payable",
      "type": "function"
    },
    {
      "constant": true,
      "inputs": [],
      "name": "token",
      "outputs": [
        {
          "name": "",
          "type": "address"
        }
      ],
      "payable": false,
      "stateMutability": "view",
      "type": "function"
    },
    {
      "inputs": [
        {
          "name": "_rate",
          "type": "uint256"
        },
        {
          "name": "_wallet",
          "type": "address"
        },
        {
          "name": "_token",
          "type": "address"
        },
        {
          "name": "_cap",
          "type": "uint256"
        },
        {
          "name": "_openingTime",
          "type": "uint256"
        },
        {
          "name": "_closingTime",
          "type": "uint256"
        }
      ],
      "payable": false,
      "stateMutability": "nonpayable",
      "type": "constructor"
    },
    {
      "payable": true,
      "stateMutability": "payable",
      "type": "fallback"
    },
    {
      "anonymous": false,
      "inputs": [
        {
          "indexed": true,
          "name": "purchaser",
          "type": "address"
        },
        {
          "indexed": true,
          "name": "beneficiary",
          "type": "address"
        },
        {
          "indexed": false,
          "name": "value",
          "type": "uint256"
        },
        {
          "indexed": false,
          "name": "amount",
          "type": "uint256"
        }
      ],
      "name": "TokenPurchase",
      "type": "event"
    },
    {
      "constant": true,
      "inputs": [
        {
          "name": "_beneficiary",
          "type": "address"
        }
      ],
      "name": "getUserContribution",
      "outputs": [
        {
          "name": "",
          "type": "uint256"
        }
      ],
      "payable": false,
      "stateMutability": "view",
      "type": "function"
    }
  ],
  "bytecode": "0x608060405266071afd498d00006007556802b5e3af16b188000060085534801561002857600080fd5b5060405160c0806106b883398101604090815281516020830151918301516060840151608085015160a090950151929491929091908181848888886000831161007057600080fd5b600160a060020a038216151561008557600080fd5b600160a060020a038116151561009a57600080fd5b60029290925560018054600160a060020a03928316600160a060020a0319918216179091556000805492909316911617815581116100d757600080fd5b600455428210156100e757600080fd5b818110156100f457600080fd5b6005919091556006555050505050506105a6806101126000396000f3006080604052600436106100c45763ffffffff7c01000000000000000000000000000000000000000000000000000000006000350416631515bc2b81146100cf5780632c4e722e146100f8578063355274ea1461011f5780634042b66f146101345780634b6753bc146101495780634f9359451461015e578063521eb273146101735780639250c367146101a4578063b25d7f54146101b9578063b7a8807c146101ce578063bb8b2b47146101e3578063ec8ac4d814610204578063fc0c546a14610218575b6100cd3361022d565b005b3480156100db57600080fd5b506100e46102cf565b604080519115158252519081900360200190f35b34801561010457600080fd5b5061010d6102d7565b60408051918252519081900360200190f35b34801561012b57600080fd5b5061010d6102dd565b34801561014057600080fd5b5061010d6102e3565b34801561015557600080fd5b5061010d6102e9565b34801561016a57600080fd5b506100e46102ef565b34801561017f57600080fd5b506101886102fa565b60408051600160a060020a039092168252519081900360200190f35b3480156101b057600080fd5b5061010d610309565b3480156101c557600080fd5b5061010d61030f565b3480156101da57600080fd5b5061010d610315565b3480156101ef57600080fd5b5061010d600160a060020a036004351661031b565b6100cd600160a060020a036004351661022d565b34801561022457600080fd5b50610188610336565b34600061023a8383610345565b610243826103bf565b600354909150610259908363ffffffff6103dc16565b60035561026683826103e9565b60408051838152602081018390528151600160a060020a0386169233927f623b3804fa71d67900d064613da8f94b9617215ee90799290593e1745087ad18929081900390910190a36102b883836103f3565b6102c06103f7565b6102ca83836103f3565b505050565b600654421190565b60025481565b60045481565b60035481565b60065481565b600454600354101590565b600154600160a060020a031681565b60085481565b60075481565b60055481565b600160a060020a031660009081526009602052604090205490565b600054600160a060020a031681565b6000806103528484610433565b600160a060020a038416600090815260096020526040902054915061037d828463ffffffff6103dc16565b9050600754811015801561039357506008548111155b151561039e57600080fd5b600160a060020a039093166000908152600960205260409020929092555050565b60006103d66002548361045c90919063ffffffff16565b92915050565b818101828110156103d657fe5b6103f38282610485565b5050565b600154604051600160a060020a03909116903480156108fc02916000818181858888f19350505050158015610430573d6000803e3d6000fd5b50565b600554421015801561044757506006544211155b151561045257600080fd5b6103f3828261052e565b600082151561046d575060006103d6565b5081810281838281151561047d57fe5b04146103d657fe5b60008054604080517f40c10f19000000000000000000000000000000000000000000000000000000008152600160a060020a03868116600483015260248201869052915191909216926340c10f1992604480820193602093909283900390910190829087803b1580156104f757600080fd5b505af115801561050b573d6000803e3d6000fd5b505050506040513d602081101561052157600080fd5b505115156103f357600080fd5b6105388282610559565b60045460035461054e908363ffffffff6103dc16565b11156103f357600080fd5b600160a060020a038216151561056e57600080fd5b8015156103f357600080fd00a165627a7a72305820d5baa2b5f221c9082f87f4c6c393f87721083b2818b49b5bf6e176beeac9803e0029",
  "source": "pragma solidity 0.4.24;\r\n\r\n// Crowdsale\r\n// Timed Crowdsale\r\n// Capped Crowdsale\r\n// Minted Crowdsale\r\n// Whitelisted Crowdsale\r\n// Refundable Crowdsale\r\n// Presale/Public Sale\r\n//Token Distribution & Vesting\r\n\r\nimport \"openzeppelin-solidity/contracts/crowdsale/Crowdsale.sol\";\r\nimport \"openzeppelin-solidity/contracts/crowdsale/emission/MintedCrowdsale.sol\";\r\nimport \"openzeppelin-solidity/contracts/crowdsale/validation/CappedCrowdsale.sol\";\r\nimport \"openzeppelin-solidity/contracts/crowdsale/validation/TimedCrowdsale.sol\";\r\n\r\ncontract TokenCrowdsale is Crowdsale, MintedCrowdsale, CappedCrowdsale, TimedCrowdsale {\r\n    \r\n    uint256 public investorMinCap = 2000000000000000; // Minimum investor contribution - 0.002 Ether\r\n    uint256 public investorMaxCap = 50000000000000000000; // Maximum investor contribution - 50 Ether\r\n    mapping(address => uint256) contributions;\r\n    \r\n    constructor(\r\n        uint256 _rate, \r\n        address _wallet, \r\n        ERC20 _token,\r\n        uint256 _cap,\r\n        uint256 _openingTime,\r\n        uint256 _closingTime\r\n    ) \r\n        Crowdsale(_rate, _wallet, _token)\r\n        CappedCrowdsale(_cap)\r\n        TimedCrowdsale(_openingTime, _closingTime)\r\n        public \r\n    {\r\n\r\n    }\r\n\r\n    function getUserContribution(address _beneficiary) public view returns(uint256) {\r\n        return contributions[_beneficiary];\r\n    }\r\n    \r\n    function _preValidatePurchase(address _beneficiary, uint256 _weiAmount) internal {\r\n        super._preValidatePurchase(_beneficiary, _weiAmount); // call parent contract and its function _preValidatePurchase\r\n        uint256 _existingContribution = contributions[_beneficiary];\r\n        uint256 _newContribution = _existingContribution.add(_weiAmount);\r\n        require(_newContribution >= investorMinCap && _newContribution <= investorMaxCap);\r\n        contributions[_beneficiary] = _newContribution;\r\n    }\r\n\r\n}",
  "sourcePath": "/mnt/c/pr0/ico/contracts/TokenCrowdsale.sol",
  "compiler": {
    "name": "solc",
    "version": "0.4.24+commit.e67f0147.Emscripten.clang"
  },
  "schemaVersion": "3.3.4",
  "updatedAt": "2021-05-24T15:30:27.752Z",
  "devdoc": {
    "methods": {
      "buyTokens(address)": {
        "details": "low level token purchase ***DO NOT OVERRIDE***",
        "params": {
          "_beneficiary": "Address performing the token purchase"
        }
      },
      "capReached()": {
        "details": "Checks whether the cap has been reached.",
        "return": "Whether the cap was reached"
      },
      "hasClosed()": {
        "details": "Checks whether the period in which the crowdsale is open has already elapsed.",
        "return": "Whether crowdsale period has elapsed"
      }
    }
  },
  "userdoc": {
    "methods": {}
  }
}