{
  "contractName": "TokenCrowdsale",
  "abi": [
    {
      "constant": true,
      "inputs": [],
      "name": "hasClosed",
      "outputs": [
        {
          "name": "",
          "type": "bool"
        }
      ],
      "payable": false,
      "stateMutability": "view",
      "type": "function"
    },
    {
      "constant": true,
      "inputs": [],
      "name": "rate",
      "outputs": [
        {
          "name": "",
          "type": "uint256"
        }
      ],
      "payable": false,
      "stateMutability": "view",
      "type": "function"
    },
    {
      "constant": true,
      "inputs": [],
      "name": "cap",
      "outputs": [
        {
          "name": "",
          "type": "uint256"
        }
      ],
      "payable": false,
      "stateMutability": "view",
      "type": "function"
    },
    {
      "constant": true,
      "inputs": [],
      "name": "goal",
      "outputs": [
        {
          "name": "",
          "type": "uint256"
        }
      ],
      "payable": false,
      "stateMutability": "view",
      "type": "function"
    },
    {
      "constant": true,
      "inputs": [],
      "name": "weiRaised",
      "outputs": [
        {
          "name": "",
          "type": "uint256"
        }
      ],
      "payable": false,
      "stateMutability": "view",
      "type": "function"
    },
    {
      "constant": true,
      "inputs": [],
      "name": "tokenSalePercentage",
      "outputs": [
        {
          "name": "",
          "type": "uint256"
        }
      ],
      "payable": false,
      "stateMutability": "view",
      "type": "function"
    },
    {
      "constant": true,
      "inputs": [],
      "name": "closingTime",
      "outputs": [
        {
          "name": "",
          "type": "uint256"
        }
      ],
      "payable": false,
      "stateMutability": "view",
      "type": "function"
    },
    {
      "constant": false,
      "inputs": [],
      "name": "finalize",
      "outputs": [],
      "payable": false,
      "stateMutability": "nonpayable",
      "type": "function"
    },
    {
      "constant": true,
      "inputs": [],
      "name": "capReached",
      "outputs": [
        {
          "name": "",
          "type": "bool"
        }
      ],
      "payable": false,
      "stateMutability": "view",
      "type": "function"
    },
    {
      "constant": true,
      "inputs": [],
      "name": "wallet",
      "outputs": [
        {
          "name": "",
          "type": "address"
        }
      ],
      "payable": false,
      "stateMutability": "view",
      "type": "function"
    },
    {
      "constant": true,
      "inputs": [],
      "name": "foundersPercentage",
      "outputs": [
        {
          "name": "",
          "type": "uint256"
        }
      ],
      "payable": false,
      "stateMutability": "view",
      "type": "function"
    },
    {
      "constant": true,
      "inputs": [],
      "name": "foundersTimelock",
      "outputs": [
        {
          "name": "",
          "type": "address"
        }
      ],
      "payable": false,
      "stateMutability": "view",
      "type": "function"
    },
    {
      "constant": false,
      "inputs": [],
      "name": "renounceOwnership",
      "outputs": [],
      "payable": false,
      "stateMutability": "nonpayable",
      "type": "function"
    },
    {
      "constant": true,
      "inputs": [],
      "name": "goalReached",
      "outputs": [
        {
          "name": "",
          "type": "bool"
        }
      ],
      "payable": false,
      "stateMutability": "view",
      "type": "function"
    },
    {
      "constant": true,
      "inputs": [],
      "name": "foundationPercentage",
      "outputs": [
        {
          "name": "",
          "type": "uint256"
        }
      ],
      "payable": false,
      "stateMutability": "view",
      "type": "function"
    },
    {
      "constant": false,
      "inputs": [
        {
          "name": "_beneficiary",
          "type": "address"
        }
      ],
      "name": "removeFromWhitelist",
      "outputs": [],
      "payable": false,
      "stateMutability": "nonpayable",
      "type": "function"
    },
    {
      "constant": false,
      "inputs": [
        {
          "name": "_beneficiaries",
          "type": "address[]"
        }
      ],
      "name": "addManyToWhitelist",
      "outputs": [],
      "payable": false,
      "stateMutability": "nonpayable",
      "type": "function"
    },
    {
      "constant": true,
      "inputs": [],
      "name": "isFinalized",
      "outputs": [
        {
          "name": "",
          "type": "bool"
        }
      ],
      "payable": false,
      "stateMutability": "view",
      "type": "function"
    },
    {
      "constant": true,
      "inputs": [],
      "name": "owner",
      "outputs": [
        {
          "name": "",
          "type": "address"
        }
      ],
      "payable": false,
      "stateMutability": "view",
      "type": "function"
    },
    {
      "constant": true,
      "inputs": [],
      "name": "investorMaxCap",
      "outputs": [
        {
          "name": "",
          "type": "uint256"
        }
      ],
      "payable": false,
      "stateMutability": "view",
      "type": "function"
    },
    {
      "constant": true,
      "inputs": [],
      "name": "partnersFund",
      "outputs": [
        {
          "name": "",
          "type": "address"
        }
      ],
      "payable": false,
      "stateMutability": "view",
      "type": "function"
    },
    {
      "constant": true,
      "inputs": [
        {
          "name": "",
          "type": "address"
        }
      ],
      "name": "whitelist",
      "outputs": [
        {
          "name": "",
          "type": "bool"
        }
      ],
      "payable": false,
      "stateMutability": "view",
      "type": "function"
    },
    {
      "constant": true,
      "inputs": [],
      "name": "foundationFund",
      "outputs": [
        {
          "name": "",
          "type": "address"
        }
      ],
      "payable": false,
      "stateMutability": "view",
      "type": "function"
    },
    {
      "constant": true,
      "inputs": [],
      "name": "investorMinCap",
      "outputs": [
        {
          "name": "",
          "type": "uint256"
        }
      ],
      "payable": false,
      "stateMutability": "view",
      "type": "function"
    },
    {
      "constant": false,
      "inputs": [],
      "name": "claimRefund",
      "outputs": [],
      "payable": false,
      "stateMutability": "nonpayable",
      "type": "function"
    },
    {
      "constant": true,
      "inputs": [],
      "name": "partnersTimelock",
      "outputs": [
        {
          "name": "",
          "type": "address"
        }
      ],
      "payable": false,
      "stateMutability": "view",
      "type": "function"
    },
    {
      "constant": true,
      "inputs": [],
      "name": "openingTime",
      "outputs": [
        {
          "name": "",
          "type": "uint256"
        }
      ],
      "payable": false,
      "stateMutability": "view",
      "type": "function"
    },
    {
      "constant": true,
      "inputs": [],
      "name": "releaseTime",
      "outputs": [
        {
          "name": "",
          "type": "uint256"
        }
      ],
      "payable": false,
      "stateMutability": "view",
      "type": "function"
    },
    {
      "constant": true,
      "inputs": [],
      "name": "stage",
      "outputs": [
        {
          "name": "",
          "type": "uint8"
        }
      ],
      "payable": false,
      "stateMutability": "view",
      "type": "function"
    },
    {
      "constant": true,
      "inputs": [],
      "name": "foundersFund",
      "outputs": [
        {
          "name": "",
          "type": "address"
        }
      ],
      "payable": false,
      "stateMutability": "view",
      "type": "function"
    },
    {
      "constant": false,
      "inputs": [
        {
          "name": "_beneficiary",
          "type": "address"
        }
      ],
      "name": "addToWhitelist",
      "outputs": [],
      "payable": false,
      "stateMutability": "nonpayable",
      "type": "function"
    },
    {
      "constant": true,
      "inputs": [],
      "name": "foundationTimelock",
      "outputs": [
        {
          "name": "",
          "type": "address"
        }
      ],
      "payable": false,
      "stateMutability": "view",
      "type": "function"
    },
    {
      "constant": false,
      "inputs": [
        {
          "name": "_beneficiary",
          "type": "address"
        }
      ],
      "name": "buyTokens",
      "outputs": [],
      "payable": true,
      "stateMutability": "payable",
      "type": "function"
    },
    {
      "constant": false,
      "inputs": [
        {
          "name": "_newOwner",
          "type": "address"
        }
      ],
      "name": "transferOwnership",
      "outputs": [],
      "payable": false,
      "stateMutability": "nonpayable",
      "type": "function"
    },
    {
      "constant": true,
      "inputs": [],
      "name": "partnersPercentage",
      "outputs": [
        {
          "name": "",
          "type": "uint256"
        }
      ],
      "payable": false,
      "stateMutability": "view",
      "type": "function"
    },
    {
      "constant": true,
      "inputs": [],
      "name": "vault",
      "outputs": [
        {
          "name": "",
          "type": "address"
        }
      ],
      "payable": false,
      "stateMutability": "view",
      "type": "function"
    },
    {
      "constant": true,
      "inputs": [],
      "name": "token",
      "outputs": [
        {
          "name": "",
          "type": "address"
        }
      ],
      "payable": false,
      "stateMutability": "view",
      "type": "function"
    },
    {
      "inputs": [
        {
          "name": "_rate",
          "type": "uint256"
        },
        {
          "name": "_wallet",
          "type": "address"
        },
        {
          "name": "_token",
          "type": "address"
        },
        {
          "name": "_cap",
          "type": "uint256"
        },
        {
          "name": "_openingTime",
          "type": "uint256"
        },
        {
          "name": "_closingTime",
          "type": "uint256"
        },
        {
          "name": "_goal",
          "type": "uint256"
        },
        {
          "name": "_foundersFund",
          "type": "address"
        },
        {
          "name": "_foundationFund",
          "type": "address"
        },
        {
          "name": "_partnersFund",
          "type": "address"
        },
        {
          "name": "_releaseTime",
          "type": "uint256"
        }
      ],
      "payable": false,
      "stateMutability": "nonpayable",
      "type": "constructor"
    },
    {
      "payable": true,
      "stateMutability": "payable",
      "type": "fallback"
    },
    {
      "anonymous": false,
      "inputs": [],
      "name": "Finalized",
      "type": "event"
    },
    {
      "anonymous": false,
      "inputs": [
        {
          "indexed": true,
          "name": "previousOwner",
          "type": "address"
        }
      ],
      "name": "OwnershipRenounced",
      "type": "event"
    },
    {
      "anonymous": false,
      "inputs": [
        {
          "indexed": true,
          "name": "previousOwner",
          "type": "address"
        },
        {
          "indexed": true,
          "name": "newOwner",
          "type": "address"
        }
      ],
      "name": "OwnershipTransferred",
      "type": "event"
    },
    {
      "anonymous": false,
      "inputs": [
        {
          "indexed": true,
          "name": "purchaser",
          "type": "address"
        },
        {
          "indexed": true,
          "name": "beneficiary",
          "type": "address"
        },
        {
          "indexed": false,
          "name": "value",
          "type": "uint256"
        },
        {
          "indexed": false,
          "name": "amount",
          "type": "uint256"
        }
      ],
      "name": "TokenPurchase",
      "type": "event"
    },
    {
      "constant": true,
      "inputs": [
        {
          "name": "_beneficiary",
          "type": "address"
        }
      ],
      "name": "getUserContribution",
      "outputs": [
        {
          "name": "",
          "type": "uint256"
        }
      ],
      "payable": false,
      "stateMutability": "view",
      "type": "function"
    },
    {
      "constant": false,
      "inputs": [
        {
          "name": "_stage",
          "type": "uint256"
        }
      ],
      "name": "setCrowdsaleStage",
      "outputs": [],
      "payable": false,
      "stateMutability": "nonpayable",
      "type": "function"
    }
  ],
  "bytecode": "0x60806040526009805460ff1990811690915566071afd498d0000600c556802b5e3af16b1880000600d55600f805490911690556046601055600a601181905560128190556013553480156200005357600080fd5b50604051610160806200218583398101604090815281516020830151918301516060840151608085015160a086015160c087015160e08801516101008901516101208a0151610140909a0151979996979596949593949293919290918487878a8e8e8e60008311620000c457600080fd5b600160a060020a0382161515620000da57600080fd5b600160a060020a0381161515620000f057600080fd5b60029290925560018054600160a060020a03928316600160a060020a0319918216179091556000805492909316911617815581116200012e57600080fd5b600455428210156200013f57600080fd5b818110156200014d57600080fd5b60059190915560065560078054600160a060020a03191633179055600081116200017657600080fd5b600154600160a060020a03166200018c6200023a565b600160a060020a03909116815260405190819003602001906000f080158015620001ba573d6000803e3d6000fd5b50600b8054600160a060020a031916600160a060020a0392909216919091179055600a5587851115620001ec57600080fd5b60148054600160a060020a0319908116600160a060020a0396871617909155601580548216948616949094179093556016805490931691909316179055601755506200024b95505050505050565b6040516106908062001af583390190565b61189a806200025b6000396000f3006080604052600436106101c95763ffffffff60e060020a6000350416631515bc2b81146101d45780632c4e722e146101fd578063355274ea1461022457806340193883146102395780634042b66f1461024e57806346daa242146102635780634b6753bc146102785780634bb278f31461028d5780634f935945146102a2578063521eb273146102b757806353c08ea2146102e857806364ceed99146102fd578063715018a6146103125780637d3d652214610327578063864329e31461033c5780638ab1d681146103515780638c10671c146103725780638d4e4083146103925780638da5cb5b146103a75780639250c367146103bc578063926f0c7b146103d15780639b19251a146103e6578063a3a3382b14610407578063a997f82f1461041c578063b25d7f5414610434578063b5545a3c14610449578063b63e53e01461045e578063b7a8807c14610473578063b91d400114610488578063bb8b2b471461049d578063c040e6b8146104be578063c440008e146104f7578063e43252d71461050c578063ec0de26e1461052d578063ec8ac4d814610542578063f2fde38b14610556578063f45b9bed14610577578063fbfa77cf1461058c578063fc0c546a146105a1575b6101d2336105b6565b005b3480156101e057600080fd5b506101e9610658565b604080519115158252519081900360200190f35b34801561020957600080fd5b50610212610660565b60408051918252519081900360200190f35b34801561023057600080fd5b50610212610666565b34801561024557600080fd5b5061021261066c565b34801561025a57600080fd5b50610212610672565b34801561026f57600080fd5b50610212610678565b34801561028457600080fd5b5061021261067e565b34801561029957600080fd5b506101d2610684565b3480156102ae57600080fd5b506101e96106fe565b3480156102c357600080fd5b506102cc610709565b60408051600160a060020a039092168252519081900360200190f35b3480156102f457600080fd5b50610212610718565b34801561030957600080fd5b506102cc61071e565b34801561031e57600080fd5b506101d261072d565b34801561033357600080fd5b506101e961079b565b34801561034857600080fd5b506102126107a6565b34801561035d57600080fd5b506101d2600160a060020a03600435166107ac565b34801561037e57600080fd5b506101d260048035602481019101356107e4565b34801561039e57600080fd5b506101e9610855565b3480156103b357600080fd5b506102cc61085e565b3480156103c857600080fd5b5061021261086d565b3480156103dd57600080fd5b506102cc610873565b3480156103f257600080fd5b506101e9600160a060020a0360043516610882565b34801561041357600080fd5b506102cc610897565b34801561042857600080fd5b506101d26004356108a6565b34801561044057600080fd5b50610212610930565b34801561045557600080fd5b506101d2610936565b34801561046a57600080fd5b506102cc6109d8565b34801561047f57600080fd5b506102126109e7565b34801561049457600080fd5b506102126109ed565b3480156104a957600080fd5b50610212600160a060020a03600435166109f3565b3480156104ca57600080fd5b506104d3610a0e565b604051808260018111156104e357fe5b60ff16815260200191505060405180910390f35b34801561050357600080fd5b506102cc610a17565b34801561051857600080fd5b506101d2600160a060020a0360043516610a26565b34801561053957600080fd5b506102cc610a61565b6101d2600160a060020a03600435166105b6565b34801561056257600080fd5b506101d2600160a060020a0360043516610a70565b34801561058357600080fd5b50610212610a90565b34801561059857600080fd5b506102cc610a96565b3480156105ad57600080fd5b506102cc610aa5565b3460006105c38383610ab4565b6105cc82610b2e565b6003549091506105e2908363ffffffff610b4b16565b6003556105ef8382610b58565b60408051838152602081018390528151600160a060020a0386169233927f623b3804fa71d67900d064613da8f94b9617215ee90799290593e1745087ad18929081900390910190a36106418383610b62565b610649610b66565b6106538383610b62565b505050565b600654421190565b60025481565b60045481565b600a5481565b60035481565b60105481565b60065481565b600754600160a060020a0316331461069b57600080fd5b60095460ff16156106ab57600080fd5b6106b3610658565b15156106be57600080fd5b6106c6610be1565b6040517f6823b073d48d6e3a7d385eeb601452d680e74bb46afe3255a7d778f3a9b1768190600090a16009805460ff19166001179055565b600454600354101590565b600154600160a060020a031681565b60115481565b601854600160a060020a031681565b600754600160a060020a0316331461074457600080fd5b600754604051600160a060020a03909116907ff8df31144d9c2f0f6b59d69b8b98abd5459d07f2742c4df920b25aae33c6482090600090a26007805473ffffffffffffffffffffffffffffffffffffffff19169055565b600a54600354101590565b60125481565b600754600160a060020a031633146107c357600080fd5b600160a060020a03166000908152600860205260409020805460ff19169055565b600754600090600160a060020a031633146107fe57600080fd5b5060005b818110156106535760016008600085858581811061081c57fe5b60209081029290920135600160a060020a0316835250810191909152604001600020805460ff1916911515919091179055600101610802565b60095460ff1681565b600754600160a060020a031681565b600d5481565b601654600160a060020a031681565b60086020526000908152604090205460ff1681565b601554600160a060020a031681565b600754600160a060020a031633146108bd57600080fd5b8015156108d357600f805460ff191690556108ea565b80600114156108ea57600f805460ff191660011790555b6000600f5460ff1660018111156108fd57fe5b141561090e576101f460025561092d565b6001600f5460ff16600181111561092157fe5b141561092d5760fa6002555b50565b600c5481565b60095460ff16151561094757600080fd5b61094f61079b565b1561095957600080fd5b600b54604080517ffa89401a0000000000000000000000000000000000000000000000000000000081523360048201529051600160a060020a039092169163fa89401a9160248082019260009290919082900301818387803b1580156109be57600080fd5b505af11580156109d2573d6000803e3d6000fd5b50505050565b601a54600160a060020a031681565b60055481565b60175481565b600160a060020a03166000908152600e602052604090205490565b600f5460ff1681565b601454600160a060020a031681565b600754600160a060020a03163314610a3d57600080fd5b600160a060020a03166000908152600860205260409020805460ff19166001179055565b601954600160a060020a031681565b600754600160a060020a03163314610a8757600080fd5b61092d8161119b565b60135481565b600b54600160a060020a031681565b600054600160a060020a031681565b600080610ac18484611219565b600160a060020a0384166000908152600e60205260409020549150610aec828463ffffffff610b4b16565b9050600c548110158015610b025750600d548111155b1515610b0d57600080fd5b600160a060020a039093166000908152600e60205260409020929092555050565b6000610b456002548361124c90919063ffffffff16565b92915050565b81810182811015610b4557fe5b610b628282611275565b5050565b6000600f5460ff166001811115610b7957fe5b1415610bbe57600154604051600160a060020a03909116903480156108fc02916000818181858888f19350505050158015610bb8573d6000803e3d6000fd5b50610bdf565b6001600f5460ff166001811115610bd157fe5b1415610bdf57610bdf61131e565b565b600080600080610bef61079b565b15611193576000809054906101000a9004600160a060020a0316935083600160a060020a03166318160ddd6040518163ffffffff1660e060020a028152600401602060405180830381600087803b158015610c4957600080fd5b505af1158015610c5d573d6000803e3d6000fd5b505050506040513d6020811015610c7357600080fd5b5051601054909350610c9f90606490610c9390869063ffffffff61139f16565b9063ffffffff61124c16565b600054601454601754929450600160a060020a0391821692911690610cc2611515565b600160a060020a039384168152919092166020820152604080820192909252905190819003606001906000f080158015610d00573d6000803e3d6000fd5b506018805473ffffffffffffffffffffffffffffffffffffffff1916600160a060020a03928316179055600054601554601754918316921690610d41611515565b600160a060020a039384168152919092166020820152604080820192909252905190819003606001906000f080158015610d7f573d6000803e3d6000fd5b506019805473ffffffffffffffffffffffffffffffffffffffff1916600160a060020a03928316179055600054601654601754918316921690610dc0611515565b600160a060020a039384168152919092166020820152604080820192909252905190819003606001906000f080158015610dfe573d6000803e3d6000fd5b50601a805473ffffffffffffffffffffffffffffffffffffffff1916600160a060020a03928316179055601854601154868316926340c10f19921690610e4590869061139f565b6040518363ffffffff1660e060020a0281526004018083600160a060020a0316600160a060020a0316815260200182815260200192505050602060405180830381600087803b158015610e9757600080fd5b505af1158015610eab573d6000803e3d6000fd5b505050506040513d6020811015610ec157600080fd5b5050601954601154600160a060020a03808716926340c10f1992911690610eef90869063ffffffff61139f16565b6040518363ffffffff1660e060020a0281526004018083600160a060020a0316600160a060020a0316815260200182815260200192505050602060405180830381600087803b158015610f4157600080fd5b505af1158015610f55573d6000803e3d6000fd5b505050506040513d6020811015610f6b57600080fd5b5050601a54601154600160a060020a03808716926340c10f1992911690610f9990869063ffffffff61139f16565b6040518363ffffffff1660e060020a0281526004018083600160a060020a0316600160a060020a0316815260200182815260200192505050602060405180830381600087803b158015610feb57600080fd5b505af1158015610fff573d6000803e3d6000fd5b505050506040513d602081101561101557600080fd5b5050604080517f7d64bcb40000000000000000000000000000000000000000000000000000000081529051600160a060020a03861691637d64bcb49160048083019260209291908290030181600087803b15801561107257600080fd5b505af1158015611086573d6000803e3d6000fd5b505050506040513d602081101561109c57600080fd5b505060008054604080517f3f4ba83a0000000000000000000000000000000000000000000000000000000081529051600160a060020a0390921693508392633f4ba83a9260048084019382900301818387803b1580156110fb57600080fd5b505af115801561110f573d6000803e3d6000fd5b5050600154604080517ff2fde38b000000000000000000000000000000000000000000000000000000008152600160a060020a0392831660048201529051918516935063f2fde38b925060248082019260009290919082900301818387803b15801561117a57600080fd5b505af115801561118e573d6000803e3d6000fd5b505050505b6109d26113b4565b600160a060020a03811615156111b057600080fd5b600754604051600160a060020a038084169216907f8be0079c531659141344cd1fd0a4f28419497f9722a3daafe3b4186f6b6457e090600090a36007805473ffffffffffffffffffffffffffffffffffffffff1916600160a060020a0392909216919091179055565b600160a060020a038216600090815260086020526040902054829060ff16151561124257600080fd5b61065383836114a5565b600082151561125d57506000610b45565b5081810281838281151561126d57fe5b0414610b4557fe5b60008054604080517f40c10f19000000000000000000000000000000000000000000000000000000008152600160a060020a03868116600483015260248201869052915191909216926340c10f1992604480820193602093909283900390910190829087803b1580156112e757600080fd5b505af11580156112fb573d6000803e3d6000fd5b505050506040513d602081101561131157600080fd5b50511515610b6257600080fd5b600b54604080517ff340fa010000000000000000000000000000000000000000000000000000000081523360048201529051600160a060020a039092169163f340fa01913491602480830192600092919082900301818588803b15801561138457600080fd5b505af1158015611398573d6000803e3d6000fd5b5050505050565b600081838115156113ac57fe5b049392505050565b6113bc61079b565b1561143157600b60009054906101000a9004600160a060020a0316600160a060020a03166343d726d66040518163ffffffff1660e060020a028152600401600060405180830381600087803b15801561141457600080fd5b505af1158015611428573d6000803e3d6000fd5b5050505061149d565b600b60009054906101000a9004600160a060020a0316600160a060020a0316638c52dc416040518163ffffffff1660e060020a028152600401600060405180830381600087803b15801561148457600080fd5b505af1158015611498573d6000803e3d6000fd5b505050505b610bdf610bdf565b60055442101580156114b957506006544211155b15156114c457600080fd5b610b6282826114d382826114f4565b6004546003546114e9908363ffffffff610b4b16565b1115610b6257600080fd5b600160a060020a038216151561150957600080fd5b801515610b6257600080fd5b60405161034980611526833901905600608060405234801561001057600080fd5b5060405160608061034983398101604090815281516020830151919092015142811161003b57600080fd5b60008054600160a060020a03948516600160a060020a03199182161790915560018054939094169216919091179091556002556102cc8061007d6000396000f3006080604052600436106100615763ffffffff7c010000000000000000000000000000000000000000000000000000000060003504166338af3eed811461006657806386d1a69f14610097578063b91d4001146100ae578063fc0c546a146100d5575b600080fd5b34801561007257600080fd5b5061007b6100ea565b60408051600160a060020a039092168252519081900360200190f35b3480156100a357600080fd5b506100ac6100f9565b005b3480156100ba57600080fd5b506100c36101d3565b60408051918252519081900360200190f35b3480156100e157600080fd5b5061007b6101d9565b600154600160a060020a031681565b60025460009042101561010b57600080fd5b60008054604080517f70a082310000000000000000000000000000000000000000000000000000000081523060048201529051600160a060020a03909216926370a08231926024808401936020939083900390910190829087803b15801561017257600080fd5b505af1158015610186573d6000803e3d6000fd5b505050506040513d602081101561019c57600080fd5b50519050600081116101ad57600080fd5b6001546000546101d091600160a060020a0391821691168363ffffffff6101e816565b50565b60025481565b600054600160a060020a031681565b82600160a060020a031663a9059cbb83836040518363ffffffff167c01000000000000000000000000000000000000000000000000000000000281526004018083600160a060020a0316600160a060020a0316815260200182815260200192505050602060405180830381600087803b15801561026457600080fd5b505af1158015610278573d6000803e3d6000fd5b505050506040513d602081101561028e57600080fd5b5051151561029b57600080fd5b5050505600a165627a7a72305820f4e455169fface34304b52b0decc8716cb482fbd78e008e423bb77c6f773cc780029a165627a7a723058200d031fa25c12bc40db17102641396a5e8183c8171db8b114196084d624aa3b9a0029608060405234801561001057600080fd5b50604051602080610690833981016040525160008054600160a060020a03191633179055600160a060020a038116151561004957600080fd5b60028054600160a060020a031916600160a060020a03929092169190911760a060020a60ff021916905561060e806100826000396000f3006080604052600436106100a35763ffffffff7c010000000000000000000000000000000000000000000000000000000060003504166343d726d681146100a8578063521eb273146100bf578063715018a6146100f05780638c52dc41146101055780638da5cb5b1461011a578063c19d93fb1461012f578063cb13cddb14610168578063f2fde38b1461019b578063f340fa01146101bc578063fa89401a146101d0575b600080fd5b3480156100b457600080fd5b506100bd6101f1565b005b3480156100cb57600080fd5b506100d46102c7565b60408051600160a060020a039092168252519081900360200190f35b3480156100fc57600080fd5b506100bd6102d6565b34801561011157600080fd5b506100bd610342565b34801561012657600080fd5b506100d46103cc565b34801561013b57600080fd5b506101446103db565b6040518082600281111561015457fe5b60ff16815260200191505060405180910390f35b34801561017457600080fd5b50610189600160a060020a03600435166103eb565b60408051918252519081900360200190f35b3480156101a757600080fd5b506100bd600160a060020a03600435166103fd565b6100bd600160a060020a036004351661041d565b3480156101dc57600080fd5b506100bd600160a060020a036004351661049d565b600054600160a060020a0316331461020857600080fd5b60006002805460a060020a900460ff169081111561022257fe5b1461022c57600080fd5b6002805474ff00000000000000000000000000000000000000001916740200000000000000000000000000000000000000001790556040517f1cdde67b72a90f19919ac732a437ac2f7a10fc128d28c2a6e525d89ce5cd9d3a90600090a1600254604051600160a060020a0390911690303180156108fc02916000818181858888f193505050501580156102c4573d6000803e3d6000fd5b50565b600254600160a060020a031681565b600054600160a060020a031633146102ed57600080fd5b60008054604051600160a060020a03909116917ff8df31144d9c2f0f6b59d69b8b98abd5459d07f2742c4df920b25aae33c6482091a26000805473ffffffffffffffffffffffffffffffffffffffff19169055565b600054600160a060020a0316331461035957600080fd5b60006002805460a060020a900460ff169081111561037357fe5b1461037d57600080fd5b6002805474ff0000000000000000000000000000000000000000191660a060020a1790556040517f599d8e5a83cffb867d051598c4d70e805d59802d8081c1c7d6dffc5b6aca2b8990600090a1565b600054600160a060020a031681565b60025460a060020a900460ff1681565b60016020526000908152604090205481565b600054600160a060020a0316331461041457600080fd5b6102c481610552565b600054600160a060020a0316331461043457600080fd5b60006002805460a060020a900460ff169081111561044e57fe5b1461045857600080fd5b600160a060020a038116600090815260016020526040902054610481903463ffffffff6105cf16565b600160a060020a03909116600090815260016020526040902055565b600060016002805460a060020a900460ff16908111156104b957fe5b146104c357600080fd5b50600160a060020a038116600081815260016020526040808220805490839055905190929183156108fc02918491818181858888f1935050505015801561050e573d6000803e3d6000fd5b50604080518281529051600160a060020a038416917fd7dee2702d63ad89917b6a4da9981c90c4d24f8c2bdfd64c604ecae57d8d0651919081900360200190a25050565b600160a060020a038116151561056757600080fd5b60008054604051600160a060020a03808516939216917f8be0079c531659141344cd1fd0a4f28419497f9722a3daafe3b4186f6b6457e091a36000805473ffffffffffffffffffffffffffffffffffffffff1916600160a060020a0392909216919091179055565b818101828110156105dc57fe5b929150505600a165627a7a72305820bedcec8e66341ed53ef3c6633e9ae6bcf0911b003b6577021cf5655cc204860b0029",
  "source": "pragma solidity 0.4.24;\r\n\r\n// Crowdsale\r\n// Timed Crowdsale\r\n// Capped Crowdsale\r\n// Minted Crowdsale\r\n// Whitelisted Crowdsale\r\n// Refundable Crowdsale\r\n// Presale/Public Sale\r\n//Token Distribution & Vesting\r\n\r\nimport \"openzeppelin-solidity/contracts/token/ERC20/ERC20.sol\";\r\nimport \"openzeppelin-solidity/contracts/token/ERC20/PausableToken.sol\";\r\nimport \"openzeppelin-solidity/contracts/token/ERC20/MintableToken.sol\";\r\nimport \"openzeppelin-solidity/contracts/token/ERC20/TokenTimelock.sol\";\r\nimport \"openzeppelin-solidity/contracts/crowdsale/Crowdsale.sol\";\r\nimport \"openzeppelin-solidity/contracts/crowdsale/emission/MintedCrowdsale.sol\";\r\nimport \"openzeppelin-solidity/contracts/crowdsale/validation/CappedCrowdsale.sol\";\r\nimport \"openzeppelin-solidity/contracts/crowdsale/validation/TimedCrowdsale.sol\";\r\nimport \"openzeppelin-solidity/contracts/crowdsale/validation/WhitelistedCrowdsale.sol\";\r\nimport \"openzeppelin-solidity/contracts/crowdsale/distribution/RefundableCrowdsale.sol\";\r\n\r\ncontract TokenCrowdsale is Crowdsale, MintedCrowdsale, CappedCrowdsale, TimedCrowdsale, WhitelistedCrowdsale, RefundableCrowdsale {\r\n    \r\n    // Track investor contributions\r\n    uint256 public investorMinCap = 2000000000000000; // Minimum investor contribution - 0.002 Ether\r\n    uint256 public investorMaxCap = 50000000000000000000; // Maximum investor contribution - 50 Ether\r\n    mapping(address => uint256) contributions;\r\n    \r\n    // Crowdsale Stages\r\n    enum CrowdsaleStage { PreICO, ICO }\r\n    CrowdsaleStage public stage = CrowdsaleStage.PreICO;\r\n\r\n    // Token Distribution\r\n    uint256 public tokenSalePercentage = 70;\r\n    uint256 public foundersPercentage = 10;\r\n    uint256 public foundationPercentage = 10;\r\n    uint256 public partnersPercentage = 10;\r\n\r\n    // Token reserve funds\r\n    address public foundersFund;\r\n    address public foundationFund;\r\n    address public partnersFund;\r\n\r\n    // Token timelock\r\n    uint256 public releaseTime;\r\n    address public foundersTimelock;\r\n    address public foundationTimelock;\r\n    address public partnersTimelock;\r\n    \r\n    constructor(\r\n        uint256 _rate, \r\n        address _wallet, \r\n        ERC20 _token,\r\n        uint256 _cap,\r\n        uint256 _openingTime,\r\n        uint256 _closingTime,\r\n        uint256 _goal,\r\n        address _foundersFund,\r\n        address _foundationFund,\r\n        address _partnersFund,\r\n        uint256 _releaseTime\r\n    ) \r\n        Crowdsale(_rate, _wallet, _token)\r\n        CappedCrowdsale(_cap)\r\n        TimedCrowdsale(_openingTime, _closingTime)\r\n        RefundableCrowdsale(_goal)\r\n        public \r\n    {\r\n        require(_goal <= _cap);\r\n        foundersFund = _foundersFund;\r\n        foundationFund = _foundationFund;\r\n        partnersFund = _partnersFund;\r\n        releaseTime = _releaseTime;\r\n    }\r\n\r\n    /**\r\n    * @dev Returns the amount contributed so far by a sepecific user.\r\n    * @param _beneficiary Address of contributor\r\n    * @return User contribution so far\r\n    */    \r\n    function getUserContribution(address _beneficiary) public view returns(uint256) {\r\n        return contributions[_beneficiary];\r\n    }\r\n\r\n    /**\r\n    * @dev Allows admin to update the crowdsale stage\r\n    * @param _stage Crowdsale stage\r\n    */    \r\n    function setCrowdsaleStage(uint _stage) public onlyOwner {\r\n        if(uint(CrowdsaleStage.PreICO) == _stage) {\r\n            stage = CrowdsaleStage.PreICO;        \r\n        } else if(uint(CrowdsaleStage.ICO) == _stage) {\r\n            stage = CrowdsaleStage.ICO;\r\n        }\r\n\r\n        if(stage == CrowdsaleStage.PreICO) {\r\n            rate = 500;\r\n        } else if(stage == CrowdsaleStage.ICO) {\r\n            rate = 250;\r\n        }\r\n    }\r\n\r\n    /**\r\n    * @dev forwards funds to the wallet during the preICO stage, and to the refund vault during ICO stage\r\n    */\r\n    function _forwardFunds() internal {\r\n        if(stage == CrowdsaleStage.PreICO) {\r\n            wallet.transfer(msg.value);\r\n        } else if (stage == CrowdsaleStage.ICO) {\r\n            super._forwardFunds();\r\n        }\r\n    }\r\n    \r\n    /**\r\n    * @dev Extend parent behavior requiring purchase to respect investor min/max funding cap.\r\n    * @param _beneficiary Token purchaser\r\n    * @param _weiAmount Amount of wei contributed\r\n    */    \r\n    function _preValidatePurchase(address _beneficiary, uint256 _weiAmount) internal {\r\n        super._preValidatePurchase(_beneficiary, _weiAmount); // call parent contract and its function _preValidatePurchase\r\n        uint256 _existingContribution = contributions[_beneficiary];\r\n        uint256 _newContribution = _existingContribution.add(_weiAmount);\r\n        require(_newContribution >= investorMinCap && _newContribution <= investorMaxCap);\r\n        contributions[_beneficiary] = _newContribution;\r\n    }\r\n\r\n    /**\r\n    * @dev enables token transfers, called when owners call finalize()\r\n    */\r\n    function finalization() internal {\r\n        if(goalReached()) {\r\n            // Finish minting the token\r\n            MintableToken _mintableToken = MintableToken(token);\r\n            uint256 _alreadyMinted = _mintableToken.totalSupply();\r\n            uint256 _finalTotalSupply = _alreadyMinted.div(tokenSalePercentage).mul(100);\r\n\r\n            // Timelock contracts instanciated\r\n            foundersTimelock = new TokenTimelock(token, foundersFund, releaseTime);\r\n            foundationTimelock = new TokenTimelock(token, foundationFund, releaseTime);\r\n            partnersTimelock = new TokenTimelock(token, partnersFund, releaseTime);\r\n\r\n            _mintableToken.mint(foundersTimelock, _finalTotalSupply.div(foundersPercentage));\r\n            _mintableToken.mint(foundationTimelock, _finalTotalSupply.div(foundersPercentage));\r\n            _mintableToken.mint(partnersTimelock, _finalTotalSupply.div(foundersPercentage));\r\n\r\n            _mintableToken.finishMinting();\r\n            // Unpause the token\r\n            PausableToken _pausableToken = PausableToken(token);\r\n            _pausableToken.unpause();\r\n            _pausableToken.transferOwnership(wallet);\r\n        }\r\n\r\n        super.finalization();\r\n    }\r\n\r\n}",
  "sourcePath": "/mnt/c/pr0/ico/contracts/TokenCrowdsale.sol",
  "compiler": {
    "name": "solc",
    "version": "0.4.24+commit.e67f0147.Emscripten.clang"
  },
  "schemaVersion": "3.3.4",
  "updatedAt": "2021-05-30T16:28:02.225Z",
  "devdoc": {
    "methods": {
      "addManyToWhitelist(address[])": {
        "details": "Adds list of addresses to whitelist. Not overloaded due to limitations with truffle testing.",
        "params": {
          "_beneficiaries": "Addresses to be added to the whitelist"
        }
      },
      "addToWhitelist(address)": {
        "details": "Adds single address to whitelist.",
        "params": {
          "_beneficiary": "Address to be added to the whitelist"
        }
      },
      "buyTokens(address)": {
        "details": "low level token purchase ***DO NOT OVERRIDE***",
        "params": {
          "_beneficiary": "Address performing the token purchase"
        }
      },
      "capReached()": {
        "details": "Checks whether the cap has been reached.",
        "return": "Whether the cap was reached"
      },
      "claimRefund()": {
        "details": "Investors can claim refunds here if crowdsale is unsuccessful"
      },
      "finalize()": {
        "details": "Must be called after crowdsale ends, to do some extra finalization work. Calls the contract's finalization function."
      },
      "getUserContribution(address)": {
        "details": "Returns the amount contributed so far by a sepecific user.\r",
        "params": {
          "_beneficiary": "Address of contributor\r"
        },
        "return": "User contribution so far\r"
      },
      "goalReached()": {
        "details": "Checks whether funding goal was reached.",
        "return": "Whether funding goal was reached"
      },
      "hasClosed()": {
        "details": "Checks whether the period in which the crowdsale is open has already elapsed.",
        "return": "Whether crowdsale period has elapsed"
      },
      "removeFromWhitelist(address)": {
        "details": "Removes single address from whitelist.",
        "params": {
          "_beneficiary": "Address to be removed to the whitelist"
        }
      },
      "renounceOwnership()": {
        "details": "Allows the current owner to relinquish control of the contract."
      },
      "setCrowdsaleStage(uint256)": {
        "details": "Allows admin to update the crowdsale stage\r",
        "params": {
          "_stage": "Crowdsale stage\r"
        }
      },
      "transferOwnership(address)": {
        "details": "Allows the current owner to transfer control of the contract to a newOwner.",
        "params": {
          "_newOwner": "The address to transfer ownership to."
        }
      }
    }
  },
  "userdoc": {
    "methods": {}
  }
}