{
  "contractName": "TokenCrowdsale",
  "abi": [
    {
      "constant": true,
      "inputs": [],
      "name": "hasClosed",
      "outputs": [
        {
          "name": "",
          "type": "bool"
        }
      ],
      "payable": false,
      "stateMutability": "view",
      "type": "function"
    },
    {
      "constant": true,
      "inputs": [],
      "name": "rate",
      "outputs": [
        {
          "name": "",
          "type": "uint256"
        }
      ],
      "payable": false,
      "stateMutability": "view",
      "type": "function"
    },
    {
      "constant": true,
      "inputs": [],
      "name": "cap",
      "outputs": [
        {
          "name": "",
          "type": "uint256"
        }
      ],
      "payable": false,
      "stateMutability": "view",
      "type": "function"
    },
    {
      "constant": true,
      "inputs": [],
      "name": "goal",
      "outputs": [
        {
          "name": "",
          "type": "uint256"
        }
      ],
      "payable": false,
      "stateMutability": "view",
      "type": "function"
    },
    {
      "constant": true,
      "inputs": [],
      "name": "weiRaised",
      "outputs": [
        {
          "name": "",
          "type": "uint256"
        }
      ],
      "payable": false,
      "stateMutability": "view",
      "type": "function"
    },
    {
      "constant": true,
      "inputs": [],
      "name": "closingTime",
      "outputs": [
        {
          "name": "",
          "type": "uint256"
        }
      ],
      "payable": false,
      "stateMutability": "view",
      "type": "function"
    },
    {
      "constant": false,
      "inputs": [],
      "name": "finalize",
      "outputs": [],
      "payable": false,
      "stateMutability": "nonpayable",
      "type": "function"
    },
    {
      "constant": true,
      "inputs": [],
      "name": "capReached",
      "outputs": [
        {
          "name": "",
          "type": "bool"
        }
      ],
      "payable": false,
      "stateMutability": "view",
      "type": "function"
    },
    {
      "constant": true,
      "inputs": [],
      "name": "wallet",
      "outputs": [
        {
          "name": "",
          "type": "address"
        }
      ],
      "payable": false,
      "stateMutability": "view",
      "type": "function"
    },
    {
      "constant": false,
      "inputs": [],
      "name": "renounceOwnership",
      "outputs": [],
      "payable": false,
      "stateMutability": "nonpayable",
      "type": "function"
    },
    {
      "constant": true,
      "inputs": [],
      "name": "goalReached",
      "outputs": [
        {
          "name": "",
          "type": "bool"
        }
      ],
      "payable": false,
      "stateMutability": "view",
      "type": "function"
    },
    {
      "constant": false,
      "inputs": [
        {
          "name": "_beneficiary",
          "type": "address"
        }
      ],
      "name": "removeFromWhitelist",
      "outputs": [],
      "payable": false,
      "stateMutability": "nonpayable",
      "type": "function"
    },
    {
      "constant": false,
      "inputs": [
        {
          "name": "_beneficiaries",
          "type": "address[]"
        }
      ],
      "name": "addManyToWhitelist",
      "outputs": [],
      "payable": false,
      "stateMutability": "nonpayable",
      "type": "function"
    },
    {
      "constant": true,
      "inputs": [],
      "name": "isFinalized",
      "outputs": [
        {
          "name": "",
          "type": "bool"
        }
      ],
      "payable": false,
      "stateMutability": "view",
      "type": "function"
    },
    {
      "constant": true,
      "inputs": [],
      "name": "owner",
      "outputs": [
        {
          "name": "",
          "type": "address"
        }
      ],
      "payable": false,
      "stateMutability": "view",
      "type": "function"
    },
    {
      "constant": true,
      "inputs": [],
      "name": "investorMaxCap",
      "outputs": [
        {
          "name": "",
          "type": "uint256"
        }
      ],
      "payable": false,
      "stateMutability": "view",
      "type": "function"
    },
    {
      "constant": true,
      "inputs": [
        {
          "name": "",
          "type": "address"
        }
      ],
      "name": "whitelist",
      "outputs": [
        {
          "name": "",
          "type": "bool"
        }
      ],
      "payable": false,
      "stateMutability": "view",
      "type": "function"
    },
    {
      "constant": true,
      "inputs": [],
      "name": "investorMinCap",
      "outputs": [
        {
          "name": "",
          "type": "uint256"
        }
      ],
      "payable": false,
      "stateMutability": "view",
      "type": "function"
    },
    {
      "constant": false,
      "inputs": [],
      "name": "claimRefund",
      "outputs": [],
      "payable": false,
      "stateMutability": "nonpayable",
      "type": "function"
    },
    {
      "constant": true,
      "inputs": [],
      "name": "openingTime",
      "outputs": [
        {
          "name": "",
          "type": "uint256"
        }
      ],
      "payable": false,
      "stateMutability": "view",
      "type": "function"
    },
    {
      "constant": false,
      "inputs": [
        {
          "name": "_beneficiary",
          "type": "address"
        }
      ],
      "name": "addToWhitelist",
      "outputs": [],
      "payable": false,
      "stateMutability": "nonpayable",
      "type": "function"
    },
    {
      "constant": false,
      "inputs": [
        {
          "name": "_beneficiary",
          "type": "address"
        }
      ],
      "name": "buyTokens",
      "outputs": [],
      "payable": true,
      "stateMutability": "payable",
      "type": "function"
    },
    {
      "constant": false,
      "inputs": [
        {
          "name": "_newOwner",
          "type": "address"
        }
      ],
      "name": "transferOwnership",
      "outputs": [],
      "payable": false,
      "stateMutability": "nonpayable",
      "type": "function"
    },
    {
      "constant": true,
      "inputs": [],
      "name": "vault",
      "outputs": [
        {
          "name": "",
          "type": "address"
        }
      ],
      "payable": false,
      "stateMutability": "view",
      "type": "function"
    },
    {
      "constant": true,
      "inputs": [],
      "name": "token",
      "outputs": [
        {
          "name": "",
          "type": "address"
        }
      ],
      "payable": false,
      "stateMutability": "view",
      "type": "function"
    },
    {
      "inputs": [
        {
          "name": "_rate",
          "type": "uint256"
        },
        {
          "name": "_wallet",
          "type": "address"
        },
        {
          "name": "_token",
          "type": "address"
        },
        {
          "name": "_cap",
          "type": "uint256"
        },
        {
          "name": "_openingTime",
          "type": "uint256"
        },
        {
          "name": "_closingTime",
          "type": "uint256"
        },
        {
          "name": "_goal",
          "type": "uint256"
        }
      ],
      "payable": false,
      "stateMutability": "nonpayable",
      "type": "constructor"
    },
    {
      "payable": true,
      "stateMutability": "payable",
      "type": "fallback"
    },
    {
      "anonymous": false,
      "inputs": [],
      "name": "Finalized",
      "type": "event"
    },
    {
      "anonymous": false,
      "inputs": [
        {
          "indexed": true,
          "name": "previousOwner",
          "type": "address"
        }
      ],
      "name": "OwnershipRenounced",
      "type": "event"
    },
    {
      "anonymous": false,
      "inputs": [
        {
          "indexed": true,
          "name": "previousOwner",
          "type": "address"
        },
        {
          "indexed": true,
          "name": "newOwner",
          "type": "address"
        }
      ],
      "name": "OwnershipTransferred",
      "type": "event"
    },
    {
      "anonymous": false,
      "inputs": [
        {
          "indexed": true,
          "name": "purchaser",
          "type": "address"
        },
        {
          "indexed": true,
          "name": "beneficiary",
          "type": "address"
        },
        {
          "indexed": false,
          "name": "value",
          "type": "uint256"
        },
        {
          "indexed": false,
          "name": "amount",
          "type": "uint256"
        }
      ],
      "name": "TokenPurchase",
      "type": "event"
    },
    {
      "constant": true,
      "inputs": [
        {
          "name": "_beneficiary",
          "type": "address"
        }
      ],
      "name": "getUserContribution",
      "outputs": [
        {
          "name": "",
          "type": "uint256"
        }
      ],
      "payable": false,
      "stateMutability": "view",
      "type": "function"
    }
  ],
  "bytecode": "0x60806040526009805460ff1916905566071afd498d0000600c556802b5e3af16b1880000600d5534801561003257600080fd5b5060405160e08061148083398101604090815281516020830151918301516060840151608085015160a086015160c0909601519395929391929091808383868a8a8a6000831161008157600080fd5b600160a060020a038216151561009657600080fd5b600160a060020a03811615156100ab57600080fd5b60029290925560018054600160a060020a03928316600160a060020a0319918216179091556000805492909316911617815581116100e857600080fd5b600455428210156100f857600080fd5b8181101561010557600080fd5b60059190915560065560078054600160a060020a031916331790556000811161012d57600080fd5b600154600160a060020a03166101416101ab565b600160a060020a03909116815260405190819003602001906000f08015801561016e573d6000803e3d6000fd5b50600b8054600160a060020a031916600160a060020a0392909216919091179055600a558381111561019f57600080fd5b505050505050506101bb565b60405161069080610df083390190565b610c26806101ca6000396000f30060806040526004361061013a5763ffffffff60e060020a6000350416631515bc2b81146101455780632c4e722e1461016e578063355274ea1461019557806340193883146101aa5780634042b66f146101bf5780634b6753bc146101d45780634bb278f3146101e95780634f935945146101fe578063521eb27314610213578063715018a6146102445780637d3d6522146102595780638ab1d6811461026e5780638c10671c1461028f5780638d4e4083146102af5780638da5cb5b146102c45780639250c367146102d95780639b19251a146102ee578063b25d7f541461030f578063b5545a3c14610324578063b7a8807c14610339578063bb8b2b471461034e578063e43252d71461036f578063ec8ac4d814610390578063f2fde38b146103a4578063fbfa77cf146103c5578063fc0c546a146103da575b610143336103ef565b005b34801561015157600080fd5b5061015a610491565b604080519115158252519081900360200190f35b34801561017a57600080fd5b50610183610499565b60408051918252519081900360200190f35b3480156101a157600080fd5b5061018361049f565b3480156101b657600080fd5b506101836104a5565b3480156101cb57600080fd5b506101836104ab565b3480156101e057600080fd5b506101836104b1565b3480156101f557600080fd5b506101436104b7565b34801561020a57600080fd5b5061015a610531565b34801561021f57600080fd5b5061022861053c565b60408051600160a060020a039092168252519081900360200190f35b34801561025057600080fd5b5061014361054b565b34801561026557600080fd5b5061015a6105b9565b34801561027a57600080fd5b50610143600160a060020a03600435166105c4565b34801561029b57600080fd5b5061014360048035602481019101356105fc565b3480156102bb57600080fd5b5061015a61066d565b3480156102d057600080fd5b50610228610676565b3480156102e557600080fd5b50610183610685565b3480156102fa57600080fd5b5061015a600160a060020a036004351661068b565b34801561031b57600080fd5b506101836106a0565b34801561033057600080fd5b506101436106a6565b34801561034557600080fd5b50610183610748565b34801561035a57600080fd5b50610183600160a060020a036004351661074e565b34801561037b57600080fd5b50610143600160a060020a0360043516610769565b610143600160a060020a03600435166103ef565b3480156103b057600080fd5b50610143600160a060020a03600435166107a4565b3480156103d157600080fd5b506102286107c7565b3480156103e657600080fd5b506102286107d6565b3460006103fc83836107e5565b6104058261085f565b60035490915061041b908363ffffffff61087c16565b6003556104288382610889565b60408051838152602081018390528151600160a060020a0386169233927f623b3804fa71d67900d064613da8f94b9617215ee90799290593e1745087ad18929081900390910190a361047a8383610893565b610482610897565b61048c8383610893565b505050565b600654421190565b60025481565b60045481565b600a5481565b60035481565b60065481565b600754600160a060020a031633146104ce57600080fd5b60095460ff16156104de57600080fd5b6104e6610491565b15156104f157600080fd5b6104f9610918565b6040517f6823b073d48d6e3a7d385eeb601452d680e74bb46afe3255a7d778f3a9b1768190600090a16009805460ff19166001179055565b600454600354101590565b600154600160a060020a031681565b600754600160a060020a0316331461056257600080fd5b600754604051600160a060020a03909116907ff8df31144d9c2f0f6b59d69b8b98abd5459d07f2742c4df920b25aae33c6482090600090a26007805473ffffffffffffffffffffffffffffffffffffffff19169055565b600a54600354101590565b600754600160a060020a031633146105db57600080fd5b600160a060020a03166000908152600860205260409020805460ff19169055565b600754600090600160a060020a0316331461061657600080fd5b5060005b8181101561048c5760016008600085858581811061063457fe5b60209081029290920135600160a060020a0316835250810191909152604001600020805460ff191691151591909117905560010161061a565b60095460ff1681565b600754600160a060020a031681565b600d5481565b60086020526000908152604090205460ff1681565b600c5481565b60095460ff1615156106b757600080fd5b6106bf6105b9565b156106c957600080fd5b600b54604080517ffa89401a0000000000000000000000000000000000000000000000000000000081523360048201529051600160a060020a039092169163fa89401a9160248082019260009290919082900301818387803b15801561072e57600080fd5b505af1158015610742573d6000803e3d6000fd5b50505050565b60055481565b600160a060020a03166000908152600e602052604090205490565b600754600160a060020a0316331461078057600080fd5b600160a060020a03166000908152600860205260409020805460ff19166001179055565b600754600160a060020a031633146107bb57600080fd5b6107c481610a07565b50565b600b54600160a060020a031681565b600054600160a060020a031681565b6000806107f28484610a85565b600160a060020a0384166000908152600e6020526040902054915061081d828463ffffffff61087c16565b9050600c5481101580156108335750600d548111155b151561083e57600080fd5b600160a060020a039093166000908152600e60205260409020929092555050565b600061087660025483610ab890919063ffffffff16565b92915050565b8181018281101561087657fe5b6108938282610ae1565b5050565b600b54604080517ff340fa010000000000000000000000000000000000000000000000000000000081523360048201529051600160a060020a039092169163f340fa01913491602480830192600092919082900301818588803b1580156108fd57600080fd5b505af1158015610911573d6000803e3d6000fd5b5050505050565b6109206105b9565b1561099557600b60009054906101000a9004600160a060020a0316600160a060020a03166343d726d66040518163ffffffff1660e060020a028152600401600060405180830381600087803b15801561097857600080fd5b505af115801561098c573d6000803e3d6000fd5b50505050610a01565b600b60009054906101000a9004600160a060020a0316600160a060020a0316638c52dc416040518163ffffffff1660e060020a028152600401600060405180830381600087803b1580156109e857600080fd5b505af11580156109fc573d6000803e3d6000fd5b505050505b610a055b565b600160a060020a0381161515610a1c57600080fd5b600754604051600160a060020a038084169216907f8be0079c531659141344cd1fd0a4f28419497f9722a3daafe3b4186f6b6457e090600090a36007805473ffffffffffffffffffffffffffffffffffffffff1916600160a060020a0392909216919091179055565b600160a060020a038216600090815260086020526040902054829060ff161515610aae57600080fd5b61048c8383610b8a565b6000821515610ac957506000610876565b50818102818382811515610ad957fe5b041461087657fe5b60008054604080517f40c10f19000000000000000000000000000000000000000000000000000000008152600160a060020a03868116600483015260248201869052915191909216926340c10f1992604480820193602093909283900390910190829087803b158015610b5357600080fd5b505af1158015610b67573d6000803e3d6000fd5b505050506040513d6020811015610b7d57600080fd5b5051151561089357600080fd5b6005544210158015610b9e57506006544211155b1515610ba957600080fd5b6108938282610bb88282610bd9565b600454600354610bce908363ffffffff61087c16565b111561089357600080fd5b600160a060020a0382161515610bee57600080fd5b80151561089357600080fd00a165627a7a72305820ba90ab27ff1fe278b101ed2c28db5b5e5b34f9a23ab6d39d980a83d181e459f50029608060405234801561001057600080fd5b50604051602080610690833981016040525160008054600160a060020a03191633179055600160a060020a038116151561004957600080fd5b60028054600160a060020a031916600160a060020a03929092169190911760a060020a60ff021916905561060e806100826000396000f3006080604052600436106100a35763ffffffff7c010000000000000000000000000000000000000000000000000000000060003504166343d726d681146100a8578063521eb273146100bf578063715018a6146100f05780638c52dc41146101055780638da5cb5b1461011a578063c19d93fb1461012f578063cb13cddb14610168578063f2fde38b1461019b578063f340fa01146101bc578063fa89401a146101d0575b600080fd5b3480156100b457600080fd5b506100bd6101f1565b005b3480156100cb57600080fd5b506100d46102c7565b60408051600160a060020a039092168252519081900360200190f35b3480156100fc57600080fd5b506100bd6102d6565b34801561011157600080fd5b506100bd610342565b34801561012657600080fd5b506100d46103cc565b34801561013b57600080fd5b506101446103db565b6040518082600281111561015457fe5b60ff16815260200191505060405180910390f35b34801561017457600080fd5b50610189600160a060020a03600435166103eb565b60408051918252519081900360200190f35b3480156101a757600080fd5b506100bd600160a060020a03600435166103fd565b6100bd600160a060020a036004351661041d565b3480156101dc57600080fd5b506100bd600160a060020a036004351661049d565b600054600160a060020a0316331461020857600080fd5b60006002805460a060020a900460ff169081111561022257fe5b1461022c57600080fd5b6002805474ff00000000000000000000000000000000000000001916740200000000000000000000000000000000000000001790556040517f1cdde67b72a90f19919ac732a437ac2f7a10fc128d28c2a6e525d89ce5cd9d3a90600090a1600254604051600160a060020a0390911690303180156108fc02916000818181858888f193505050501580156102c4573d6000803e3d6000fd5b50565b600254600160a060020a031681565b600054600160a060020a031633146102ed57600080fd5b60008054604051600160a060020a03909116917ff8df31144d9c2f0f6b59d69b8b98abd5459d07f2742c4df920b25aae33c6482091a26000805473ffffffffffffffffffffffffffffffffffffffff19169055565b600054600160a060020a0316331461035957600080fd5b60006002805460a060020a900460ff169081111561037357fe5b1461037d57600080fd5b6002805474ff0000000000000000000000000000000000000000191660a060020a1790556040517f599d8e5a83cffb867d051598c4d70e805d59802d8081c1c7d6dffc5b6aca2b8990600090a1565b600054600160a060020a031681565b60025460a060020a900460ff1681565b60016020526000908152604090205481565b600054600160a060020a0316331461041457600080fd5b6102c481610552565b600054600160a060020a0316331461043457600080fd5b60006002805460a060020a900460ff169081111561044e57fe5b1461045857600080fd5b600160a060020a038116600090815260016020526040902054610481903463ffffffff6105cf16565b600160a060020a03909116600090815260016020526040902055565b600060016002805460a060020a900460ff16908111156104b957fe5b146104c357600080fd5b50600160a060020a038116600081815260016020526040808220805490839055905190929183156108fc02918491818181858888f1935050505015801561050e573d6000803e3d6000fd5b50604080518281529051600160a060020a038416917fd7dee2702d63ad89917b6a4da9981c90c4d24f8c2bdfd64c604ecae57d8d0651919081900360200190a25050565b600160a060020a038116151561056757600080fd5b60008054604051600160a060020a03808516939216917f8be0079c531659141344cd1fd0a4f28419497f9722a3daafe3b4186f6b6457e091a36000805473ffffffffffffffffffffffffffffffffffffffff1916600160a060020a0392909216919091179055565b818101828110156105dc57fe5b929150505600a165627a7a72305820bedcec8e66341ed53ef3c6633e9ae6bcf0911b003b6577021cf5655cc204860b0029",
  "source": "pragma solidity 0.4.24;\r\n\r\n// Crowdsale\r\n// Timed Crowdsale\r\n// Capped Crowdsale\r\n// Minted Crowdsale\r\n// Whitelisted Crowdsale\r\n// Refundable Crowdsale\r\n// Presale/Public Sale\r\n//Token Distribution & Vesting\r\n\r\nimport \"openzeppelin-solidity/contracts/crowdsale/Crowdsale.sol\";\r\nimport \"openzeppelin-solidity/contracts/crowdsale/emission/MintedCrowdsale.sol\";\r\nimport \"openzeppelin-solidity/contracts/crowdsale/validation/CappedCrowdsale.sol\";\r\nimport \"openzeppelin-solidity/contracts/crowdsale/validation/TimedCrowdsale.sol\";\r\nimport \"openzeppelin-solidity/contracts/crowdsale/validation/WhitelistedCrowdsale.sol\";\r\nimport \"openzeppelin-solidity/contracts/crowdsale/distribution/RefundableCrowdsale.sol\";\r\n\r\ncontract TokenCrowdsale is Crowdsale, MintedCrowdsale, CappedCrowdsale, TimedCrowdsale, WhitelistedCrowdsale, RefundableCrowdsale {\r\n    \r\n    // Track investor contributions\r\n    uint256 public investorMinCap = 2000000000000000; // Minimum investor contribution - 0.002 Ether\r\n    uint256 public investorMaxCap = 50000000000000000000; // Maximum investor contribution - 50 Ether\r\n    mapping(address => uint256) contributions;\r\n    \r\n    constructor(\r\n        uint256 _rate, \r\n        address _wallet, \r\n        ERC20 _token,\r\n        uint256 _cap,\r\n        uint256 _openingTime,\r\n        uint256 _closingTime,\r\n        uint256 _goal\r\n    ) \r\n        Crowdsale(_rate, _wallet, _token)\r\n        CappedCrowdsale(_cap)\r\n        TimedCrowdsale(_openingTime, _closingTime)\r\n        RefundableCrowdsale(_goal)\r\n        public \r\n    {\r\n        require(_goal <= _cap);\r\n    }\r\n\r\n    function getUserContribution(address _beneficiary) public view returns(uint256) {\r\n        return contributions[_beneficiary];\r\n    }\r\n    \r\n    function _preValidatePurchase(address _beneficiary, uint256 _weiAmount) internal {\r\n        super._preValidatePurchase(_beneficiary, _weiAmount); // call parent contract and its function _preValidatePurchase\r\n        uint256 _existingContribution = contributions[_beneficiary];\r\n        uint256 _newContribution = _existingContribution.add(_weiAmount);\r\n        require(_newContribution >= investorMinCap && _newContribution <= investorMaxCap);\r\n        contributions[_beneficiary] = _newContribution;\r\n    }\r\n\r\n}",
  "sourcePath": "/mnt/c/pr0/ico/contracts/TokenCrowdsale.sol",
  "compiler": {
    "name": "solc",
    "version": "0.4.24+commit.e67f0147.Emscripten.clang"
  },
  "schemaVersion": "3.3.4",
  "updatedAt": "2021-05-29T09:37:39.231Z",
  "devdoc": {
    "methods": {
      "addManyToWhitelist(address[])": {
        "details": "Adds list of addresses to whitelist. Not overloaded due to limitations with truffle testing.",
        "params": {
          "_beneficiaries": "Addresses to be added to the whitelist"
        }
      },
      "addToWhitelist(address)": {
        "details": "Adds single address to whitelist.",
        "params": {
          "_beneficiary": "Address to be added to the whitelist"
        }
      },
      "buyTokens(address)": {
        "details": "low level token purchase ***DO NOT OVERRIDE***",
        "params": {
          "_beneficiary": "Address performing the token purchase"
        }
      },
      "capReached()": {
        "details": "Checks whether the cap has been reached.",
        "return": "Whether the cap was reached"
      },
      "claimRefund()": {
        "details": "Investors can claim refunds here if crowdsale is unsuccessful"
      },
      "finalize()": {
        "details": "Must be called after crowdsale ends, to do some extra finalization work. Calls the contract's finalization function."
      },
      "goalReached()": {
        "details": "Checks whether funding goal was reached.",
        "return": "Whether funding goal was reached"
      },
      "hasClosed()": {
        "details": "Checks whether the period in which the crowdsale is open has already elapsed.",
        "return": "Whether crowdsale period has elapsed"
      },
      "removeFromWhitelist(address)": {
        "details": "Removes single address from whitelist.",
        "params": {
          "_beneficiary": "Address to be removed to the whitelist"
        }
      },
      "renounceOwnership()": {
        "details": "Allows the current owner to relinquish control of the contract."
      },
      "transferOwnership(address)": {
        "details": "Allows the current owner to transfer control of the contract to a newOwner.",
        "params": {
          "_newOwner": "The address to transfer ownership to."
        }
      }
    }
  },
  "userdoc": {
    "methods": {}
  }
}